{
	"data": {
		"bytecode": {
			"linkReferences": {},
			"object": "60806040523480156200001157600080fd5b506040516200086f3803806200086f833981810160405281019062000037919062000225565b80336000806101000a81548173ffffffffffffffffffffffffffffffffffffffff021916908373ffffffffffffffffffffffffffffffffffffffff1602179055508060019081620000899190620004c1565b505050620005a8565b6000604051905090565b600080fd5b600080fd5b600080fd5b600080fd5b6000601f19601f8301169050919050565b7f4e487b7100000000000000000000000000000000000000000000000000000000600052604160045260246000fd5b620000fb82620000b0565b810181811067ffffffffffffffff821117156200011d576200011c620000c1565b5b80604052505050565b60006200013262000092565b9050620001408282620000f0565b919050565b600067ffffffffffffffff821115620001635762000162620000c1565b5b6200016e82620000b0565b9050602081019050919050565b60005b838110156200019b5780820151818401526020810190506200017e565b60008484015250505050565b6000620001be620001b88462000145565b62000126565b905082815260208101848484011115620001dd57620001dc620000ab565b5b620001ea8482856200017b565b509392505050565b600082601f8301126200020a5762000209620000a6565b5b81516200021c848260208601620001a7565b91505092915050565b6000602082840312156200023e576200023d6200009c565b5b600082015167ffffffffffffffff8111156200025f576200025e620000a1565b5b6200026d84828501620001f2565b91505092915050565b600081519050919050565b7f4e487b7100000000000000000000000000000000000000000000000000000000600052602260045260246000fd5b60006002820490506001821680620002c957607f821691505b602082108103620002df57620002de62000281565b5b50919050565b60008190508160005260206000209050919050565b60006020601f8301049050919050565b600082821b905092915050565b600060088302620003497fffffffffffffffffffffffffffffffffffffffffffffffffffffffffffffffff826200030a565b6200035586836200030a565b95508019841693508086168417925050509392505050565b6000819050919050565b6000819050919050565b6000620003a26200039c62000396846200036d565b62000377565b6200036d565b9050919050565b6000819050919050565b620003be8362000381565b620003d6620003cd82620003a9565b84845462000317565b825550505050565b600090565b620003ed620003de565b620003fa818484620003b3565b505050565b5b81811015620004225762000416600082620003e3565b60018101905062000400565b5050565b601f82111562000471576200043b81620002e5565b6200044684620002fa565b8101602085101562000456578190505b6200046e6200046585620002fa565b830182620003ff565b50505b505050565b600082821c905092915050565b6000620004966000198460080262000476565b1980831691505092915050565b6000620004b1838362000483565b9150826002028217905092915050565b620004cc8262000276565b67ffffffffffffffff811115620004e857620004e7620000c1565b5b620004f48254620002b0565b6200050182828562000426565b600060209050601f83116001811462000539576000841562000524578287015190505b620005308582620004a3565b865550620005a0565b601f1984166200054986620002e5565b60005b8281101562000573578489015182556001820191506020850194506020810190506200054c565b868310156200059357848901516200058f601f89168262000483565b8355505b6001600288020188555050505b505050505050565b6102b780620005b86000396000f3fe608060405234801561001057600080fd5b50600436106100365760003560e01c806317ef4e4b1461003b578063cad0899b1461006b575b600080fd5b610055600480360381019061005091906101b4565b61009b565b6040516100629190610203565b60405180910390f35b610085600480360381019061008091906101b4565b61010a565b6040516100929190610203565b60405180910390f35b60008060009054906101000a900473ffffffffffffffffffffffffffffffffffffffff1673ffffffffffffffffffffffffffffffffffffffff163373ffffffffffffffffffffffffffffffffffffffff16146100f657600080fd5b8183610102919061024d565b905092915050565b60008060009054906101000a900473ffffffffffffffffffffffffffffffffffffffff1673ffffffffffffffffffffffffffffffffffffffff163373ffffffffffffffffffffffffffffffffffffffff161461016557600080fd5b8183610171919061024d565b905092915050565b600080fd5b6000819050919050565b6101918161017e565b811461019c57600080fd5b50565b6000813590506101ae81610188565b92915050565b600080604083850312156101cb576101ca610179565b5b60006101d98582860161019f565b92505060206101ea8582860161019f565b9150509250929050565b6101fd8161017e565b82525050565b600060208201905061021860008301846101f4565b92915050565b7f4e487b7100000000000000000000000000000000000000000000000000000000600052601160045260246000fd5b60006102588261017e565b91506102638361017e565b925082820190508082111561027b5761027a61021e565b5b9291505056fea26469706673582212209e5b34c22864da80eee4220ffe73a13806bc32b8b5c9ae9bb05b449b0096a27864736f6c63430008120033",
			"opcodes": "PUSH1 0x80 PUSH1 0x40 MSTORE CALLVALUE DUP1 ISZERO PUSH3 0x11 JUMPI PUSH1 0x0 DUP1 REVERT JUMPDEST POP PUSH1 0x40 MLOAD PUSH3 0x86F CODESIZE SUB DUP1 PUSH3 0x86F DUP4 CODECOPY DUP2 DUP2 ADD PUSH1 0x40 MSTORE DUP2 ADD SWAP1 PUSH3 0x37 SWAP2 SWAP1 PUSH3 0x225 JUMP JUMPDEST DUP1 CALLER PUSH1 0x0 DUP1 PUSH2 0x100 EXP DUP2 SLOAD DUP2 PUSH20 0xFFFFFFFFFFFFFFFFFFFFFFFFFFFFFFFFFFFFFFFF MUL NOT AND SWAP1 DUP4 PUSH20 0xFFFFFFFFFFFFFFFFFFFFFFFFFFFFFFFFFFFFFFFF AND MUL OR SWAP1 SSTORE POP DUP1 PUSH1 0x1 SWAP1 DUP2 PUSH3 0x89 SWAP2 SWAP1 PUSH3 0x4C1 JUMP JUMPDEST POP POP POP PUSH3 0x5A8 JUMP JUMPDEST PUSH1 0x0 PUSH1 0x40 MLOAD SWAP1 POP SWAP1 JUMP JUMPDEST PUSH1 0x0 DUP1 REVERT JUMPDEST PUSH1 0x0 DUP1 REVERT JUMPDEST PUSH1 0x0 DUP1 REVERT JUMPDEST PUSH1 0x0 DUP1 REVERT JUMPDEST PUSH1 0x0 PUSH1 0x1F NOT PUSH1 0x1F DUP4 ADD AND SWAP1 POP SWAP2 SWAP1 POP JUMP JUMPDEST PUSH32 0x4E487B7100000000000000000000000000000000000000000000000000000000 PUSH1 0x0 MSTORE PUSH1 0x41 PUSH1 0x4 MSTORE PUSH1 0x24 PUSH1 0x0 REVERT JUMPDEST PUSH3 0xFB DUP3 PUSH3 0xB0 JUMP JUMPDEST DUP2 ADD DUP2 DUP2 LT PUSH8 0xFFFFFFFFFFFFFFFF DUP3 GT OR ISZERO PUSH3 0x11D JUMPI PUSH3 0x11C PUSH3 0xC1 JUMP JUMPDEST JUMPDEST DUP1 PUSH1 0x40 MSTORE POP POP POP JUMP JUMPDEST PUSH1 0x0 PUSH3 0x132 PUSH3 0x92 JUMP JUMPDEST SWAP1 POP PUSH3 0x140 DUP3 DUP3 PUSH3 0xF0 JUMP JUMPDEST SWAP2 SWAP1 POP JUMP JUMPDEST PUSH1 0x0 PUSH8 0xFFFFFFFFFFFFFFFF DUP3 GT ISZERO PUSH3 0x163 JUMPI PUSH3 0x162 PUSH3 0xC1 JUMP JUMPDEST JUMPDEST PUSH3 0x16E DUP3 PUSH3 0xB0 JUMP JUMPDEST SWAP1 POP PUSH1 0x20 DUP2 ADD SWAP1 POP SWAP2 SWAP1 POP JUMP JUMPDEST PUSH1 0x0 JUMPDEST DUP4 DUP2 LT ISZERO PUSH3 0x19B JUMPI DUP1 DUP3 ADD MLOAD DUP2 DUP5 ADD MSTORE PUSH1 0x20 DUP2 ADD SWAP1 POP PUSH3 0x17E JUMP JUMPDEST PUSH1 0x0 DUP5 DUP5 ADD MSTORE POP POP POP POP JUMP JUMPDEST PUSH1 0x0 PUSH3 0x1BE PUSH3 0x1B8 DUP5 PUSH3 0x145 JUMP JUMPDEST PUSH3 0x126 JUMP JUMPDEST SWAP1 POP DUP3 DUP2 MSTORE PUSH1 0x20 DUP2 ADD DUP5 DUP5 DUP5 ADD GT ISZERO PUSH3 0x1DD JUMPI PUSH3 0x1DC PUSH3 0xAB JUMP JUMPDEST JUMPDEST PUSH3 0x1EA DUP5 DUP3 DUP6 PUSH3 0x17B JUMP JUMPDEST POP SWAP4 SWAP3 POP POP POP JUMP JUMPDEST PUSH1 0x0 DUP3 PUSH1 0x1F DUP4 ADD SLT PUSH3 0x20A JUMPI PUSH3 0x209 PUSH3 0xA6 JUMP JUMPDEST JUMPDEST DUP2 MLOAD PUSH3 0x21C DUP5 DUP3 PUSH1 0x20 DUP7 ADD PUSH3 0x1A7 JUMP JUMPDEST SWAP2 POP POP SWAP3 SWAP2 POP POP JUMP JUMPDEST PUSH1 0x0 PUSH1 0x20 DUP3 DUP5 SUB SLT ISZERO PUSH3 0x23E JUMPI PUSH3 0x23D PUSH3 0x9C JUMP JUMPDEST JUMPDEST PUSH1 0x0 DUP3 ADD MLOAD PUSH8 0xFFFFFFFFFFFFFFFF DUP2 GT ISZERO PUSH3 0x25F JUMPI PUSH3 0x25E PUSH3 0xA1 JUMP JUMPDEST JUMPDEST PUSH3 0x26D DUP5 DUP3 DUP6 ADD PUSH3 0x1F2 JUMP JUMPDEST SWAP2 POP POP SWAP3 SWAP2 POP POP JUMP JUMPDEST PUSH1 0x0 DUP2 MLOAD SWAP1 POP SWAP2 SWAP1 POP JUMP JUMPDEST PUSH32 0x4E487B7100000000000000000000000000000000000000000000000000000000 PUSH1 0x0 MSTORE PUSH1 0x22 PUSH1 0x4 MSTORE PUSH1 0x24 PUSH1 0x0 REVERT JUMPDEST PUSH1 0x0 PUSH1 0x2 DUP3 DIV SWAP1 POP PUSH1 0x1 DUP3 AND DUP1 PUSH3 0x2C9 JUMPI PUSH1 0x7F DUP3 AND SWAP2 POP JUMPDEST PUSH1 0x20 DUP3 LT DUP2 SUB PUSH3 0x2DF JUMPI PUSH3 0x2DE PUSH3 0x281 JUMP JUMPDEST JUMPDEST POP SWAP2 SWAP1 POP JUMP JUMPDEST PUSH1 0x0 DUP2 SWAP1 POP DUP2 PUSH1 0x0 MSTORE PUSH1 0x20 PUSH1 0x0 KECCAK256 SWAP1 POP SWAP2 SWAP1 POP JUMP JUMPDEST PUSH1 0x0 PUSH1 0x20 PUSH1 0x1F DUP4 ADD DIV SWAP1 POP SWAP2 SWAP1 POP JUMP JUMPDEST PUSH1 0x0 DUP3 DUP3 SHL SWAP1 POP SWAP3 SWAP2 POP POP JUMP JUMPDEST PUSH1 0x0 PUSH1 0x8 DUP4 MUL PUSH3 0x349 PUSH32 0xFFFFFFFFFFFFFFFFFFFFFFFFFFFFFFFFFFFFFFFFFFFFFFFFFFFFFFFFFFFFFFFF DUP3 PUSH3 0x30A JUMP JUMPDEST PUSH3 0x355 DUP7 DUP4 PUSH3 0x30A JUMP JUMPDEST SWAP6 POP DUP1 NOT DUP5 AND SWAP4 POP DUP1 DUP7 AND DUP5 OR SWAP3 POP POP POP SWAP4 SWAP3 POP POP POP JUMP JUMPDEST PUSH1 0x0 DUP2 SWAP1 POP SWAP2 SWAP1 POP JUMP JUMPDEST PUSH1 0x0 DUP2 SWAP1 POP SWAP2 SWAP1 POP JUMP JUMPDEST PUSH1 0x0 PUSH3 0x3A2 PUSH3 0x39C PUSH3 0x396 DUP5 PUSH3 0x36D JUMP JUMPDEST PUSH3 0x377 JUMP JUMPDEST PUSH3 0x36D JUMP JUMPDEST SWAP1 POP SWAP2 SWAP1 POP JUMP JUMPDEST PUSH1 0x0 DUP2 SWAP1 POP SWAP2 SWAP1 POP JUMP JUMPDEST PUSH3 0x3BE DUP4 PUSH3 0x381 JUMP JUMPDEST PUSH3 0x3D6 PUSH3 0x3CD DUP3 PUSH3 0x3A9 JUMP JUMPDEST DUP5 DUP5 SLOAD PUSH3 0x317 JUMP JUMPDEST DUP3 SSTORE POP POP POP POP JUMP JUMPDEST PUSH1 0x0 SWAP1 JUMP JUMPDEST PUSH3 0x3ED PUSH3 0x3DE JUMP JUMPDEST PUSH3 0x3FA DUP2 DUP5 DUP5 PUSH3 0x3B3 JUMP JUMPDEST POP POP POP JUMP JUMPDEST JUMPDEST DUP2 DUP2 LT ISZERO PUSH3 0x422 JUMPI PUSH3 0x416 PUSH1 0x0 DUP3 PUSH3 0x3E3 JUMP JUMPDEST PUSH1 0x1 DUP2 ADD SWAP1 POP PUSH3 0x400 JUMP JUMPDEST POP POP JUMP JUMPDEST PUSH1 0x1F DUP3 GT ISZERO PUSH3 0x471 JUMPI PUSH3 0x43B DUP2 PUSH3 0x2E5 JUMP JUMPDEST PUSH3 0x446 DUP5 PUSH3 0x2FA JUMP JUMPDEST DUP2 ADD PUSH1 0x20 DUP6 LT ISZERO PUSH3 0x456 JUMPI DUP2 SWAP1 POP JUMPDEST PUSH3 0x46E PUSH3 0x465 DUP6 PUSH3 0x2FA JUMP JUMPDEST DUP4 ADD DUP3 PUSH3 0x3FF JUMP JUMPDEST POP POP JUMPDEST POP POP POP JUMP JUMPDEST PUSH1 0x0 DUP3 DUP3 SHR SWAP1 POP SWAP3 SWAP2 POP POP JUMP JUMPDEST PUSH1 0x0 PUSH3 0x496 PUSH1 0x0 NOT DUP5 PUSH1 0x8 MUL PUSH3 0x476 JUMP JUMPDEST NOT DUP1 DUP4 AND SWAP2 POP POP SWAP3 SWAP2 POP POP JUMP JUMPDEST PUSH1 0x0 PUSH3 0x4B1 DUP4 DUP4 PUSH3 0x483 JUMP JUMPDEST SWAP2 POP DUP3 PUSH1 0x2 MUL DUP3 OR SWAP1 POP SWAP3 SWAP2 POP POP JUMP JUMPDEST PUSH3 0x4CC DUP3 PUSH3 0x276 JUMP JUMPDEST PUSH8 0xFFFFFFFFFFFFFFFF DUP2 GT ISZERO PUSH3 0x4E8 JUMPI PUSH3 0x4E7 PUSH3 0xC1 JUMP JUMPDEST JUMPDEST PUSH3 0x4F4 DUP3 SLOAD PUSH3 0x2B0 JUMP JUMPDEST PUSH3 0x501 DUP3 DUP3 DUP6 PUSH3 0x426 JUMP JUMPDEST PUSH1 0x0 PUSH1 0x20 SWAP1 POP PUSH1 0x1F DUP4 GT PUSH1 0x1 DUP2 EQ PUSH3 0x539 JUMPI PUSH1 0x0 DUP5 ISZERO PUSH3 0x524 JUMPI DUP3 DUP8 ADD MLOAD SWAP1 POP JUMPDEST PUSH3 0x530 DUP6 DUP3 PUSH3 0x4A3 JUMP JUMPDEST DUP7 SSTORE POP PUSH3 0x5A0 JUMP JUMPDEST PUSH1 0x1F NOT DUP5 AND PUSH3 0x549 DUP7 PUSH3 0x2E5 JUMP JUMPDEST PUSH1 0x0 JUMPDEST DUP3 DUP2 LT ISZERO PUSH3 0x573 JUMPI DUP5 DUP10 ADD MLOAD DUP3 SSTORE PUSH1 0x1 DUP3 ADD SWAP2 POP PUSH1 0x20 DUP6 ADD SWAP5 POP PUSH1 0x20 DUP2 ADD SWAP1 POP PUSH3 0x54C JUMP JUMPDEST DUP7 DUP4 LT ISZERO PUSH3 0x593 JUMPI DUP5 DUP10 ADD MLOAD PUSH3 0x58F PUSH1 0x1F DUP10 AND DUP3 PUSH3 0x483 JUMP JUMPDEST DUP4 SSTORE POP JUMPDEST PUSH1 0x1 PUSH1 0x2 DUP9 MUL ADD DUP9 SSTORE POP POP POP JUMPDEST POP POP POP POP POP POP JUMP JUMPDEST PUSH2 0x2B7 DUP1 PUSH3 0x5B8 PUSH1 0x0 CODECOPY PUSH1 0x0 RETURN INVALID PUSH1 0x80 PUSH1 0x40 MSTORE CALLVALUE DUP1 ISZERO PUSH2 0x10 JUMPI PUSH1 0x0 DUP1 REVERT JUMPDEST POP PUSH1 0x4 CALLDATASIZE LT PUSH2 0x36 JUMPI PUSH1 0x0 CALLDATALOAD PUSH1 0xE0 SHR DUP1 PUSH4 0x17EF4E4B EQ PUSH2 0x3B JUMPI DUP1 PUSH4 0xCAD0899B EQ PUSH2 0x6B JUMPI JUMPDEST PUSH1 0x0 DUP1 REVERT JUMPDEST PUSH2 0x55 PUSH1 0x4 DUP1 CALLDATASIZE SUB DUP2 ADD SWAP1 PUSH2 0x50 SWAP2 SWAP1 PUSH2 0x1B4 JUMP JUMPDEST PUSH2 0x9B JUMP JUMPDEST PUSH1 0x40 MLOAD PUSH2 0x62 SWAP2 SWAP1 PUSH2 0x203 JUMP JUMPDEST PUSH1 0x40 MLOAD DUP1 SWAP2 SUB SWAP1 RETURN JUMPDEST PUSH2 0x85 PUSH1 0x4 DUP1 CALLDATASIZE SUB DUP2 ADD SWAP1 PUSH2 0x80 SWAP2 SWAP1 PUSH2 0x1B4 JUMP JUMPDEST PUSH2 0x10A JUMP JUMPDEST PUSH1 0x40 MLOAD PUSH2 0x92 SWAP2 SWAP1 PUSH2 0x203 JUMP JUMPDEST PUSH1 0x40 MLOAD DUP1 SWAP2 SUB SWAP1 RETURN JUMPDEST PUSH1 0x0 DUP1 PUSH1 0x0 SWAP1 SLOAD SWAP1 PUSH2 0x100 EXP SWAP1 DIV PUSH20 0xFFFFFFFFFFFFFFFFFFFFFFFFFFFFFFFFFFFFFFFF AND PUSH20 0xFFFFFFFFFFFFFFFFFFFFFFFFFFFFFFFFFFFFFFFF AND CALLER PUSH20 0xFFFFFFFFFFFFFFFFFFFFFFFFFFFFFFFFFFFFFFFF AND EQ PUSH2 0xF6 JUMPI PUSH1 0x0 DUP1 REVERT JUMPDEST DUP2 DUP4 PUSH2 0x102 SWAP2 SWAP1 PUSH2 0x24D JUMP JUMPDEST SWAP1 POP SWAP3 SWAP2 POP POP JUMP JUMPDEST PUSH1 0x0 DUP1 PUSH1 0x0 SWAP1 SLOAD SWAP1 PUSH2 0x100 EXP SWAP1 DIV PUSH20 0xFFFFFFFFFFFFFFFFFFFFFFFFFFFFFFFFFFFFFFFF AND PUSH20 0xFFFFFFFFFFFFFFFFFFFFFFFFFFFFFFFFFFFFFFFF AND CALLER PUSH20 0xFFFFFFFFFFFFFFFFFFFFFFFFFFFFFFFFFFFFFFFF AND EQ PUSH2 0x165 JUMPI PUSH1 0x0 DUP1 REVERT JUMPDEST DUP2 DUP4 PUSH2 0x171 SWAP2 SWAP1 PUSH2 0x24D JUMP JUMPDEST SWAP1 POP SWAP3 SWAP2 POP POP JUMP JUMPDEST PUSH1 0x0 DUP1 REVERT JUMPDEST PUSH1 0x0 DUP2 SWAP1 POP SWAP2 SWAP1 POP JUMP JUMPDEST PUSH2 0x191 DUP2 PUSH2 0x17E JUMP JUMPDEST DUP2 EQ PUSH2 0x19C JUMPI PUSH1 0x0 DUP1 REVERT JUMPDEST POP JUMP JUMPDEST PUSH1 0x0 DUP2 CALLDATALOAD SWAP1 POP PUSH2 0x1AE DUP2 PUSH2 0x188 JUMP JUMPDEST SWAP3 SWAP2 POP POP JUMP JUMPDEST PUSH1 0x0 DUP1 PUSH1 0x40 DUP4 DUP6 SUB SLT ISZERO PUSH2 0x1CB JUMPI PUSH2 0x1CA PUSH2 0x179 JUMP JUMPDEST JUMPDEST PUSH1 0x0 PUSH2 0x1D9 DUP6 DUP3 DUP7 ADD PUSH2 0x19F JUMP JUMPDEST SWAP3 POP POP PUSH1 0x20 PUSH2 0x1EA DUP6 DUP3 DUP7 ADD PUSH2 0x19F JUMP JUMPDEST SWAP2 POP POP SWAP3 POP SWAP3 SWAP1 POP JUMP JUMPDEST PUSH2 0x1FD DUP2 PUSH2 0x17E JUMP JUMPDEST DUP3 MSTORE POP POP JUMP JUMPDEST PUSH1 0x0 PUSH1 0x20 DUP3 ADD SWAP1 POP PUSH2 0x218 PUSH1 0x0 DUP4 ADD DUP5 PUSH2 0x1F4 JUMP JUMPDEST SWAP3 SWAP2 POP POP JUMP JUMPDEST PUSH32 0x4E487B7100000000000000000000000000000000000000000000000000000000 PUSH1 0x0 MSTORE PUSH1 0x11 PUSH1 0x4 MSTORE PUSH1 0x24 PUSH1 0x0 REVERT JUMPDEST PUSH1 0x0 PUSH2 0x258 DUP3 PUSH2 0x17E JUMP JUMPDEST SWAP2 POP PUSH2 0x263 DUP4 PUSH2 0x17E JUMP JUMPDEST SWAP3 POP DUP3 DUP3 ADD SWAP1 POP DUP1 DUP3 GT ISZERO PUSH2 0x27B JUMPI PUSH2 0x27A PUSH2 0x21E JUMP JUMPDEST JUMPDEST SWAP3 SWAP2 POP POP JUMP INVALID LOG2 PUSH5 0x6970667358 0x22 SLT KECCAK256 SWAP15 JUMPDEST CALLVALUE 0xC2 0x28 PUSH5 0xDA80EEE422 0xF INVALID PUSH20 0xA13806BC32B8B5C9AE9BB05B449B0096A2786473 PUSH16 0x6C634300081200330000000000000000 "
		},
		"gasEstimates": {
			"creation": {
				"codeDepositCost": "139000",
				"executionCost": "infinite",
				"totalCost": "infinite"
			},
			"external": {
				"Sum(uint256,uint256)": "infinite",
				"sum(uint256,uint256)": "infinite"
			}
		},
		"methodIdentifiers": {
			"Sum(uint256,uint256)": "17ef4e4b",
			"sum(uint256,uint256)": "cad0899b"
		}
	},
	"abi": [
		{
			"inputs": [
				{
					"internalType": "string",
					"name": "newName",
					"type": "string"
				}
			],
			"stateMutability": "nonpayable",
			"type": "constructor"
		},
		{
			"inputs": [
				{
					"internalType": "uint256",
					"name": "num1",
					"type": "uint256"
				},
				{
					"internalType": "uint256",
					"name": "num2",
					"type": "uint256"
				}
			],
			"name": "Sum",
			"outputs": [
				{
					"internalType": "uint256",
					"name": "",
					"type": "uint256"
				}
			],
			"stateMutability": "view",
			"type": "function"
		},
		{
			"inputs": [
				{
					"internalType": "uint256",
					"name": "num1",
					"type": "uint256"
				},
				{
					"internalType": "uint256",
					"name": "num2",
					"type": "uint256"
				}
			],
			"name": "sum",
			"outputs": [
				{
					"internalType": "uint256",
					"name": "",
					"type": "uint256"
				}
			],
			"stateMutability": "view",
			"type": "function"
		}
	]
}