{
	"Platzi Solidity Intro/Events.sol": {
		"Envents": {
			"abi": [
				{
					"inputs": [
						{
							"internalType": "bool",
							"name": "condition",
							"type": "bool"
						}
					],
					"stateMutability": "nonpayable",
					"type": "constructor"
				},
				{
					"anonymous": false,
					"inputs": [
						{
							"indexed": false,
							"internalType": "bool",
							"name": "condition",
							"type": "bool"
						}
					],
					"name": "StatNotification",
					"type": "event"
				},
				{
					"inputs": [
						{
							"internalType": "uint256",
							"name": "",
							"type": "uint256"
						}
					],
					"name": "numbers",
					"outputs": [
						{
							"internalType": "uint256",
							"name": "",
							"type": "uint256"
						}
					],
					"stateMutability": "view",
					"type": "function"
				},
				{
					"inputs": [],
					"name": "result",
					"outputs": [
						{
							"internalType": "string",
							"name": "",
							"type": "string"
						}
					],
					"stateMutability": "view",
					"type": "function"
				}
			],
			"devdoc": {
				"kind": "dev",
				"methods": {},
				"version": 1
			},
			"evm": {
				"assembly": "    /* \"Platzi Solidity Intro/Events.sol\":192:619  contract Envents{... */\n  mstore(0x40, 0x80)\n    /* \"Platzi Solidity Intro/Events.sol\":319:616  constructor(bool condition){... */\n  callvalue\n  dup1\n  iszero\n  tag_1\n  jumpi\n  0x00\n  dup1\n  revert\ntag_1:\n  pop\n  mload(0x40)\n  sub(codesize, bytecodeSize)\n  dup1\n  bytecodeSize\n  dup4\n  codecopy\n  dup2\n  dup2\n  add\n  0x40\n  mstore\n  dup2\n  add\n  swap1\n  tag_2\n  swap2\n  swap1\n  tag_3\n  jump\t// in\ntag_2:\n    /* \"Platzi Solidity Intro/Events.sol\":360:369  condition */\n  dup1\n    /* \"Platzi Solidity Intro/Events.sol\":357:483  if(condition){... */\n  iszero\n  tag_6\n  jumpi\n    /* \"Platzi Solidity Intro/Events.sol\":385:412  result = \"Contidition True\" */\n  mload(0x40)\n  dup1\n  0x40\n  add\n  0x40\n  mstore\n  dup1\n  0x10\n  dup2\n  mstore\n  0x20\n  add\n  0x436f6e7469646974696f6e205472756500000000000000000000000000000000\n  dup2\n  mstore\n  pop\n    /* \"Platzi Solidity Intro/Events.sol\":385:391  result */\n  0x01\n    /* \"Platzi Solidity Intro/Events.sol\":385:412  result = \"Contidition True\" */\n  swap1\n  dup2\n  tag_7\n  swap2\n  swap1\n  tag_8\n  jump\t// in\ntag_7:\n  pop\n    /* \"Platzi Solidity Intro/Events.sol\":357:483  if(condition){... */\n  jump(tag_9)\ntag_6:\n    /* \"Platzi Solidity Intro/Events.sol\":443:471  result = \"Contidition False\" */\n  mload(0x40)\n  dup1\n  0x40\n  add\n  0x40\n  mstore\n  dup1\n  0x11\n  dup2\n  mstore\n  0x20\n  add\n  0x436f6e7469646974696f6e2046616c7365000000000000000000000000000000\n  dup2\n  mstore\n  pop\n    /* \"Platzi Solidity Intro/Events.sol\":443:449  result */\n  0x01\n    /* \"Platzi Solidity Intro/Events.sol\":443:471  result = \"Contidition False\" */\n  swap1\n  dup2\n  tag_10\n  swap2\n  swap1\n  tag_8\n  jump\t// in\ntag_10:\n  pop\n    /* \"Platzi Solidity Intro/Events.sol\":357:483  if(condition){... */\ntag_9:\n    /* \"Platzi Solidity Intro/Events.sol\":500:527  StatNotification(condition) */\n  0xfda8fe1708c5369f6e502b8b035ac38701e2975c30314cf86b41951ebdaa107c\n    /* \"Platzi Solidity Intro/Events.sol\":517:526  condition */\n  dup2\n    /* \"Platzi Solidity Intro/Events.sol\":500:527  StatNotification(condition) */\n  mload(0x40)\n  tag_11\n  swap2\n  swap1\n  tag_12\n  jump\t// in\ntag_11:\n  mload(0x40)\n  dup1\n  swap2\n  sub\n  swap1\n  log1\n    /* \"Platzi Solidity Intro/Events.sol\":543:549  uint i */\n  0x00\n    /* \"Platzi Solidity Intro/Events.sol\":538:609  for (uint i = 0; i < 10; i++){... */\ntag_13:\n    /* \"Platzi Solidity Intro/Events.sol\":559:561  10 */\n  0x0a\n    /* \"Platzi Solidity Intro/Events.sol\":555:556  i */\n  dup2\n    /* \"Platzi Solidity Intro/Events.sol\":555:561  i < 10 */\n  lt\n    /* \"Platzi Solidity Intro/Events.sol\":538:609  for (uint i = 0; i < 10; i++){... */\n  iszero\n  tag_14\n  jumpi\n    /* \"Platzi Solidity Intro/Events.sol\":582:589  numbers */\n  0x00\n    /* \"Platzi Solidity Intro/Events.sol\":595:596  i */\n  dup2\n    /* \"Platzi Solidity Intro/Events.sol\":582:597  numbers.push(i) */\n  swap1\n  dup1\n  0x01\n  dup2\n  sload\n  add\n  dup1\n  dup3\n  sstore\n  dup1\n  swap2\n  pop\n  pop\n  0x01\n  swap1\n  sub\n  swap1\n  0x00\n  mstore\n  keccak256(0x00, 0x20)\n  add\n  0x00\n  swap1\n  swap2\n  swap1\n  swap2\n  swap1\n  swap2\n  pop\n  sstore\n    /* \"Platzi Solidity Intro/Events.sol\":563:566  i++ */\n  dup1\n  dup1\n  tag_17\n  swap1\n  tag_18\n  jump\t// in\ntag_17:\n  swap2\n  pop\n  pop\n    /* \"Platzi Solidity Intro/Events.sol\":538:609  for (uint i = 0; i < 10; i++){... */\n  jump(tag_13)\ntag_14:\n  pop\n    /* \"Platzi Solidity Intro/Events.sol\":319:616  constructor(bool condition){... */\n  pop\n    /* \"Platzi Solidity Intro/Events.sol\":192:619  contract Envents{... */\n  jump(tag_19)\n    /* \"#utility.yul\":88:205   */\ntag_21:\n    /* \"#utility.yul\":197:198   */\n  0x00\n    /* \"#utility.yul\":194:195   */\n  dup1\n    /* \"#utility.yul\":187:199   */\n  revert\n    /* \"#utility.yul\":334:424   */\ntag_23:\n    /* \"#utility.yul\":368:375   */\n  0x00\n    /* \"#utility.yul\":411:416   */\n  dup2\n    /* \"#utility.yul\":404:417   */\n  iszero\n    /* \"#utility.yul\":397:418   */\n  iszero\n    /* \"#utility.yul\":386:418   */\n  swap1\n  pop\n    /* \"#utility.yul\":334:424   */\n  swap2\n  swap1\n  pop\n  jump\t// out\n    /* \"#utility.yul\":430:546   */\ntag_24:\n    /* \"#utility.yul\":500:521   */\n  tag_54\n    /* \"#utility.yul\":515:520   */\n  dup2\n    /* \"#utility.yul\":500:521   */\n  tag_23\n  jump\t// in\ntag_54:\n    /* \"#utility.yul\":493:498   */\n  dup2\n    /* \"#utility.yul\":490:522   */\n  eq\n    /* \"#utility.yul\":480:540   */\n  tag_55\n  jumpi\n    /* \"#utility.yul\":536:537   */\n  0x00\n    /* \"#utility.yul\":533:534   */\n  dup1\n    /* \"#utility.yul\":526:538   */\n  revert\n    /* \"#utility.yul\":480:540   */\ntag_55:\n    /* \"#utility.yul\":430:546   */\n  pop\n  jump\t// out\n    /* \"#utility.yul\":552:689   */\ntag_25:\n    /* \"#utility.yul\":606:611   */\n  0x00\n    /* \"#utility.yul\":637:643   */\n  dup2\n    /* \"#utility.yul\":631:644   */\n  mload\n    /* \"#utility.yul\":622:644   */\n  swap1\n  pop\n    /* \"#utility.yul\":653:683   */\n  tag_57\n    /* \"#utility.yul\":677:682   */\n  dup2\n    /* \"#utility.yul\":653:683   */\n  tag_24\n  jump\t// in\ntag_57:\n    /* \"#utility.yul\":552:689   */\n  swap3\n  swap2\n  pop\n  pop\n  jump\t// out\n    /* \"#utility.yul\":695:1040   */\ntag_3:\n    /* \"#utility.yul\":762:768   */\n  0x00\n    /* \"#utility.yul\":811:813   */\n  0x20\n    /* \"#utility.yul\":799:808   */\n  dup3\n    /* \"#utility.yul\":790:797   */\n  dup5\n    /* \"#utility.yul\":786:809   */\n  sub\n    /* \"#utility.yul\":782:814   */\n  slt\n    /* \"#utility.yul\":779:898   */\n  iszero\n  tag_59\n  jumpi\n    /* \"#utility.yul\":817:896   */\n  tag_60\n  tag_21\n  jump\t// in\ntag_60:\n    /* \"#utility.yul\":779:898   */\ntag_59:\n    /* \"#utility.yul\":937:938   */\n  0x00\n    /* \"#utility.yul\":962:1023   */\n  tag_61\n    /* \"#utility.yul\":1015:1022   */\n  dup5\n    /* \"#utility.yul\":1006:1012   */\n  dup3\n    /* \"#utility.yul\":995:1004   */\n  dup6\n    /* \"#utility.yul\":991:1013   */\n  add\n    /* \"#utility.yul\":962:1023   */\n  tag_25\n  jump\t// in\ntag_61:\n    /* \"#utility.yul\":952:1023   */\n  swap2\n  pop\n    /* \"#utility.yul\":908:1033   */\n  pop\n    /* \"#utility.yul\":695:1040   */\n  swap3\n  swap2\n  pop\n  pop\n  jump\t// out\n    /* \"#utility.yul\":1046:1145   */\ntag_26:\n    /* \"#utility.yul\":1098:1104   */\n  0x00\n    /* \"#utility.yul\":1132:1137   */\n  dup2\n    /* \"#utility.yul\":1126:1138   */\n  mload\n    /* \"#utility.yul\":1116:1138   */\n  swap1\n  pop\n    /* \"#utility.yul\":1046:1145   */\n  swap2\n  swap1\n  pop\n  jump\t// out\n    /* \"#utility.yul\":1151:1331   */\ntag_27:\n    /* \"#utility.yul\":1199:1276   */\n  0x4e487b7100000000000000000000000000000000000000000000000000000000\n    /* \"#utility.yul\":1196:1197   */\n  0x00\n    /* \"#utility.yul\":1189:1277   */\n  mstore\n    /* \"#utility.yul\":1296:1300   */\n  0x41\n    /* \"#utility.yul\":1293:1294   */\n  0x04\n    /* \"#utility.yul\":1286:1301   */\n  mstore\n    /* \"#utility.yul\":1320:1324   */\n  0x24\n    /* \"#utility.yul\":1317:1318   */\n  0x00\n    /* \"#utility.yul\":1310:1325   */\n  revert\n    /* \"#utility.yul\":1337:1517   */\ntag_28:\n    /* \"#utility.yul\":1385:1462   */\n  0x4e487b7100000000000000000000000000000000000000000000000000000000\n    /* \"#utility.yul\":1382:1383   */\n  0x00\n    /* \"#utility.yul\":1375:1463   */\n  mstore\n    /* \"#utility.yul\":1482:1486   */\n  0x22\n    /* \"#utility.yul\":1479:1480   */\n  0x04\n    /* \"#utility.yul\":1472:1487   */\n  mstore\n    /* \"#utility.yul\":1506:1510   */\n  0x24\n    /* \"#utility.yul\":1503:1504   */\n  0x00\n    /* \"#utility.yul\":1496:1511   */\n  revert\n    /* \"#utility.yul\":1523:1843   */\ntag_29:\n    /* \"#utility.yul\":1567:1573   */\n  0x00\n    /* \"#utility.yul\":1604:1605   */\n  0x02\n    /* \"#utility.yul\":1598:1602   */\n  dup3\n    /* \"#utility.yul\":1594:1606   */\n  div\n    /* \"#utility.yul\":1584:1606   */\n  swap1\n  pop\n    /* \"#utility.yul\":1651:1652   */\n  0x01\n    /* \"#utility.yul\":1645:1649   */\n  dup3\n    /* \"#utility.yul\":1641:1653   */\n  and\n    /* \"#utility.yul\":1672:1690   */\n  dup1\n    /* \"#utility.yul\":1662:1743   */\n  tag_66\n  jumpi\n    /* \"#utility.yul\":1728:1732   */\n  0x7f\n    /* \"#utility.yul\":1720:1726   */\n  dup3\n    /* \"#utility.yul\":1716:1733   */\n  and\n    /* \"#utility.yul\":1706:1733   */\n  swap2\n  pop\n    /* \"#utility.yul\":1662:1743   */\ntag_66:\n    /* \"#utility.yul\":1790:1792   */\n  0x20\n    /* \"#utility.yul\":1782:1788   */\n  dup3\n    /* \"#utility.yul\":1779:1793   */\n  lt\n    /* \"#utility.yul\":1759:1777   */\n  dup2\n    /* \"#utility.yul\":1756:1794   */\n  sub\n    /* \"#utility.yul\":1753:1837   */\n  tag_67\n  jumpi\n    /* \"#utility.yul\":1809:1827   */\n  tag_68\n  tag_28\n  jump\t// in\ntag_68:\n    /* \"#utility.yul\":1753:1837   */\ntag_67:\n    /* \"#utility.yul\":1574:1843   */\n  pop\n    /* \"#utility.yul\":1523:1843   */\n  swap2\n  swap1\n  pop\n  jump\t// out\n    /* \"#utility.yul\":1849:1990   */\ntag_30:\n    /* \"#utility.yul\":1898:1902   */\n  0x00\n    /* \"#utility.yul\":1921:1924   */\n  dup2\n    /* \"#utility.yul\":1913:1924   */\n  swap1\n  pop\n    /* \"#utility.yul\":1944:1947   */\n  dup2\n    /* \"#utility.yul\":1941:1942   */\n  0x00\n    /* \"#utility.yul\":1934:1948   */\n  mstore\n    /* \"#utility.yul\":1978:1982   */\n  0x20\n    /* \"#utility.yul\":1975:1976   */\n  0x00\n    /* \"#utility.yul\":1965:1983   */\n  keccak256\n    /* \"#utility.yul\":1957:1983   */\n  swap1\n  pop\n    /* \"#utility.yul\":1849:1990   */\n  swap2\n  swap1\n  pop\n  jump\t// out\n    /* \"#utility.yul\":1996:2089   */\ntag_31:\n    /* \"#utility.yul\":2033:2039   */\n  0x00\n    /* \"#utility.yul\":2080:2082   */\n  0x20\n    /* \"#utility.yul\":2075:2077   */\n  0x1f\n    /* \"#utility.yul\":2068:2073   */\n  dup4\n    /* \"#utility.yul\":2064:2078   */\n  add\n    /* \"#utility.yul\":2060:2083   */\n  div\n    /* \"#utility.yul\":2050:2083   */\n  swap1\n  pop\n    /* \"#utility.yul\":1996:2089   */\n  swap2\n  swap1\n  pop\n  jump\t// out\n    /* \"#utility.yul\":2095:2202   */\ntag_32:\n    /* \"#utility.yul\":2139:2147   */\n  0x00\n    /* \"#utility.yul\":2189:2194   */\n  dup3\n    /* \"#utility.yul\":2183:2187   */\n  dup3\n    /* \"#utility.yul\":2179:2195   */\n  shl\n    /* \"#utility.yul\":2158:2195   */\n  swap1\n  pop\n    /* \"#utility.yul\":2095:2202   */\n  swap3\n  swap2\n  pop\n  pop\n  jump\t// out\n    /* \"#utility.yul\":2208:2601   */\ntag_33:\n    /* \"#utility.yul\":2277:2283   */\n  0x00\n    /* \"#utility.yul\":2327:2328   */\n  0x08\n    /* \"#utility.yul\":2315:2325   */\n  dup4\n    /* \"#utility.yul\":2311:2329   */\n  mul\n    /* \"#utility.yul\":2350:2447   */\n  tag_73\n    /* \"#utility.yul\":2380:2446   */\n  0xffffffffffffffffffffffffffffffffffffffffffffffffffffffffffffffff\n    /* \"#utility.yul\":2369:2378   */\n  dup3\n    /* \"#utility.yul\":2350:2447   */\n  tag_32\n  jump\t// in\ntag_73:\n    /* \"#utility.yul\":2468:2507   */\n  tag_74\n    /* \"#utility.yul\":2498:2506   */\n  dup7\n    /* \"#utility.yul\":2487:2496   */\n  dup4\n    /* \"#utility.yul\":2468:2507   */\n  tag_32\n  jump\t// in\ntag_74:\n    /* \"#utility.yul\":2456:2507   */\n  swap6\n  pop\n    /* \"#utility.yul\":2540:2544   */\n  dup1\n    /* \"#utility.yul\":2536:2545   */\n  not\n    /* \"#utility.yul\":2529:2534   */\n  dup5\n    /* \"#utility.yul\":2525:2546   */\n  and\n    /* \"#utility.yul\":2516:2546   */\n  swap4\n  pop\n    /* \"#utility.yul\":2589:2593   */\n  dup1\n    /* \"#utility.yul\":2579:2587   */\n  dup7\n    /* \"#utility.yul\":2575:2594   */\n  and\n    /* \"#utility.yul\":2568:2573   */\n  dup5\n    /* \"#utility.yul\":2565:2595   */\n  or\n    /* \"#utility.yul\":2555:2595   */\n  swap3\n  pop\n    /* \"#utility.yul\":2284:2601   */\n  pop\n  pop\n    /* \"#utility.yul\":2208:2601   */\n  swap4\n  swap3\n  pop\n  pop\n  pop\n  jump\t// out\n    /* \"#utility.yul\":2607:2684   */\ntag_34:\n    /* \"#utility.yul\":2644:2651   */\n  0x00\n    /* \"#utility.yul\":2673:2678   */\n  dup2\n    /* \"#utility.yul\":2662:2678   */\n  swap1\n  pop\n    /* \"#utility.yul\":2607:2684   */\n  swap2\n  swap1\n  pop\n  jump\t// out\n    /* \"#utility.yul\":2690:2750   */\ntag_35:\n    /* \"#utility.yul\":2718:2721   */\n  0x00\n    /* \"#utility.yul\":2739:2744   */\n  dup2\n    /* \"#utility.yul\":2732:2744   */\n  swap1\n  pop\n    /* \"#utility.yul\":2690:2750   */\n  swap2\n  swap1\n  pop\n  jump\t// out\n    /* \"#utility.yul\":2756:2898   */\ntag_36:\n    /* \"#utility.yul\":2806:2815   */\n  0x00\n    /* \"#utility.yul\":2839:2892   */\n  tag_78\n    /* \"#utility.yul\":2857:2891   */\n  tag_79\n    /* \"#utility.yul\":2866:2890   */\n  tag_80\n    /* \"#utility.yul\":2884:2889   */\n  dup5\n    /* \"#utility.yul\":2866:2890   */\n  tag_34\n  jump\t// in\ntag_80:\n    /* \"#utility.yul\":2857:2891   */\n  tag_35\n  jump\t// in\ntag_79:\n    /* \"#utility.yul\":2839:2892   */\n  tag_34\n  jump\t// in\ntag_78:\n    /* \"#utility.yul\":2826:2892   */\n  swap1\n  pop\n    /* \"#utility.yul\":2756:2898   */\n  swap2\n  swap1\n  pop\n  jump\t// out\n    /* \"#utility.yul\":2904:2979   */\ntag_37:\n    /* \"#utility.yul\":2947:2950   */\n  0x00\n    /* \"#utility.yul\":2968:2973   */\n  dup2\n    /* \"#utility.yul\":2961:2973   */\n  swap1\n  pop\n    /* \"#utility.yul\":2904:2979   */\n  swap2\n  swap1\n  pop\n  jump\t// out\n    /* \"#utility.yul\":2985:3254   */\ntag_38:\n    /* \"#utility.yul\":3095:3134   */\n  tag_83\n    /* \"#utility.yul\":3126:3133   */\n  dup4\n    /* \"#utility.yul\":3095:3134   */\n  tag_36\n  jump\t// in\ntag_83:\n    /* \"#utility.yul\":3156:3247   */\n  tag_84\n    /* \"#utility.yul\":3205:3246   */\n  tag_85\n    /* \"#utility.yul\":3229:3245   */\n  dup3\n    /* \"#utility.yul\":3205:3246   */\n  tag_37\n  jump\t// in\ntag_85:\n    /* \"#utility.yul\":3197:3203   */\n  dup5\n    /* \"#utility.yul\":3190:3194   */\n  dup5\n    /* \"#utility.yul\":3184:3195   */\n  sload\n    /* \"#utility.yul\":3156:3247   */\n  tag_33\n  jump\t// in\ntag_84:\n    /* \"#utility.yul\":3150:3154   */\n  dup3\n    /* \"#utility.yul\":3143:3248   */\n  sstore\n    /* \"#utility.yul\":3061:3254   */\n  pop\n    /* \"#utility.yul\":2985:3254   */\n  pop\n  pop\n  pop\n  jump\t// out\n    /* \"#utility.yul\":3260:3333   */\ntag_39:\n    /* \"#utility.yul\":3305:3308   */\n  0x00\n    /* \"#utility.yul\":3260:3333   */\n  swap1\n  jump\t// out\n    /* \"#utility.yul\":3339:3528   */\ntag_40:\n    /* \"#utility.yul\":3416:3448   */\n  tag_88\n  tag_39\n  jump\t// in\ntag_88:\n    /* \"#utility.yul\":3457:3522   */\n  tag_89\n    /* \"#utility.yul\":3515:3521   */\n  dup2\n    /* \"#utility.yul\":3507:3513   */\n  dup5\n    /* \"#utility.yul\":3501:3505   */\n  dup5\n    /* \"#utility.yul\":3457:3522   */\n  tag_38\n  jump\t// in\ntag_89:\n    /* \"#utility.yul\":3392:3528   */\n  pop\n    /* \"#utility.yul\":3339:3528   */\n  pop\n  pop\n  jump\t// out\n    /* \"#utility.yul\":3534:3720   */\ntag_41:\n    /* \"#utility.yul\":3594:3714   */\ntag_91:\n    /* \"#utility.yul\":3611:3614   */\n  dup2\n    /* \"#utility.yul\":3604:3609   */\n  dup2\n    /* \"#utility.yul\":3601:3615   */\n  lt\n    /* \"#utility.yul\":3594:3714   */\n  iszero\n  tag_93\n  jumpi\n    /* \"#utility.yul\":3665:3704   */\n  tag_94\n    /* \"#utility.yul\":3702:3703   */\n  0x00\n    /* \"#utility.yul\":3695:3700   */\n  dup3\n    /* \"#utility.yul\":3665:3704   */\n  tag_40\n  jump\t// in\ntag_94:\n    /* \"#utility.yul\":3638:3639   */\n  0x01\n    /* \"#utility.yul\":3631:3636   */\n  dup2\n    /* \"#utility.yul\":3627:3640   */\n  add\n    /* \"#utility.yul\":3618:3640   */\n  swap1\n  pop\n    /* \"#utility.yul\":3594:3714   */\n  jump(tag_91)\ntag_93:\n    /* \"#utility.yul\":3534:3720   */\n  pop\n  pop\n  jump\t// out\n    /* \"#utility.yul\":3726:4269   */\ntag_42:\n    /* \"#utility.yul\":3827:3829   */\n  0x1f\n    /* \"#utility.yul\":3822:3825   */\n  dup3\n    /* \"#utility.yul\":3819:3830   */\n  gt\n    /* \"#utility.yul\":3816:4262   */\n  iszero\n  tag_96\n  jumpi\n    /* \"#utility.yul\":3861:3899   */\n  tag_97\n    /* \"#utility.yul\":3893:3898   */\n  dup2\n    /* \"#utility.yul\":3861:3899   */\n  tag_30\n  jump\t// in\ntag_97:\n    /* \"#utility.yul\":3945:3974   */\n  tag_98\n    /* \"#utility.yul\":3963:3973   */\n  dup5\n    /* \"#utility.yul\":3945:3974   */\n  tag_31\n  jump\t// in\ntag_98:\n    /* \"#utility.yul\":3935:3943   */\n  dup2\n    /* \"#utility.yul\":3931:3975   */\n  add\n    /* \"#utility.yul\":4128:4130   */\n  0x20\n    /* \"#utility.yul\":4116:4126   */\n  dup6\n    /* \"#utility.yul\":4113:4131   */\n  lt\n    /* \"#utility.yul\":4110:4159   */\n  iszero\n  tag_99\n  jumpi\n    /* \"#utility.yul\":4149:4157   */\n  dup2\n    /* \"#utility.yul\":4134:4157   */\n  swap1\n  pop\n    /* \"#utility.yul\":4110:4159   */\ntag_99:\n    /* \"#utility.yul\":4172:4252   */\n  tag_100\n    /* \"#utility.yul\":4228:4250   */\n  tag_101\n    /* \"#utility.yul\":4246:4249   */\n  dup6\n    /* \"#utility.yul\":4228:4250   */\n  tag_31\n  jump\t// in\ntag_101:\n    /* \"#utility.yul\":4218:4226   */\n  dup4\n    /* \"#utility.yul\":4214:4251   */\n  add\n    /* \"#utility.yul\":4201:4212   */\n  dup3\n    /* \"#utility.yul\":4172:4252   */\n  tag_41\n  jump\t// in\ntag_100:\n    /* \"#utility.yul\":3831:4262   */\n  pop\n  pop\n    /* \"#utility.yul\":3816:4262   */\ntag_96:\n    /* \"#utility.yul\":3726:4269   */\n  pop\n  pop\n  pop\n  jump\t// out\n    /* \"#utility.yul\":4275:4392   */\ntag_43:\n    /* \"#utility.yul\":4329:4337   */\n  0x00\n    /* \"#utility.yul\":4379:4384   */\n  dup3\n    /* \"#utility.yul\":4373:4377   */\n  dup3\n    /* \"#utility.yul\":4369:4385   */\n  shr\n    /* \"#utility.yul\":4348:4385   */\n  swap1\n  pop\n    /* \"#utility.yul\":4275:4392   */\n  swap3\n  swap2\n  pop\n  pop\n  jump\t// out\n    /* \"#utility.yul\":4398:4567   */\ntag_44:\n    /* \"#utility.yul\":4442:4448   */\n  0x00\n    /* \"#utility.yul\":4475:4526   */\n  tag_104\n    /* \"#utility.yul\":4523:4524   */\n  0x00\n    /* \"#utility.yul\":4519:4525   */\n  not\n    /* \"#utility.yul\":4511:4516   */\n  dup5\n    /* \"#utility.yul\":4508:4509   */\n  0x08\n    /* \"#utility.yul\":4504:4517   */\n  mul\n    /* \"#utility.yul\":4475:4526   */\n  tag_43\n  jump\t// in\ntag_104:\n    /* \"#utility.yul\":4471:4527   */\n  not\n    /* \"#utility.yul\":4556:4560   */\n  dup1\n    /* \"#utility.yul\":4550:4554   */\n  dup4\n    /* \"#utility.yul\":4546:4561   */\n  and\n    /* \"#utility.yul\":4536:4561   */\n  swap2\n  pop\n    /* \"#utility.yul\":4449:4567   */\n  pop\n    /* \"#utility.yul\":4398:4567   */\n  swap3\n  swap2\n  pop\n  pop\n  jump\t// out\n    /* \"#utility.yul\":4572:4867   */\ntag_45:\n    /* \"#utility.yul\":4648:4652   */\n  0x00\n    /* \"#utility.yul\":4794:4823   */\n  tag_106\n    /* \"#utility.yul\":4819:4822   */\n  dup4\n    /* \"#utility.yul\":4813:4817   */\n  dup4\n    /* \"#utility.yul\":4794:4823   */\n  tag_44\n  jump\t// in\ntag_106:\n    /* \"#utility.yul\":4786:4823   */\n  swap2\n  pop\n    /* \"#utility.yul\":4856:4859   */\n  dup3\n    /* \"#utility.yul\":4853:4854   */\n  0x02\n    /* \"#utility.yul\":4849:4860   */\n  mul\n    /* \"#utility.yul\":4843:4847   */\n  dup3\n    /* \"#utility.yul\":4840:4861   */\n  or\n    /* \"#utility.yul\":4832:4861   */\n  swap1\n  pop\n    /* \"#utility.yul\":4572:4867   */\n  swap3\n  swap2\n  pop\n  pop\n  jump\t// out\n    /* \"#utility.yul\":4872:6267   */\ntag_8:\n    /* \"#utility.yul\":4989:5026   */\n  tag_108\n    /* \"#utility.yul\":5022:5025   */\n  dup3\n    /* \"#utility.yul\":4989:5026   */\n  tag_26\n  jump\t// in\ntag_108:\n    /* \"#utility.yul\":5091:5109   */\n  0xffffffffffffffff\n    /* \"#utility.yul\":5083:5089   */\n  dup2\n    /* \"#utility.yul\":5080:5110   */\n  gt\n    /* \"#utility.yul\":5077:5133   */\n  iszero\n  tag_109\n  jumpi\n    /* \"#utility.yul\":5113:5131   */\n  tag_110\n  tag_27\n  jump\t// in\ntag_110:\n    /* \"#utility.yul\":5077:5133   */\ntag_109:\n    /* \"#utility.yul\":5157:5195   */\n  tag_111\n    /* \"#utility.yul\":5189:5193   */\n  dup3\n    /* \"#utility.yul\":5183:5194   */\n  sload\n    /* \"#utility.yul\":5157:5195   */\n  tag_29\n  jump\t// in\ntag_111:\n    /* \"#utility.yul\":5242:5309   */\n  tag_112\n    /* \"#utility.yul\":5302:5308   */\n  dup3\n    /* \"#utility.yul\":5294:5300   */\n  dup3\n    /* \"#utility.yul\":5288:5292   */\n  dup6\n    /* \"#utility.yul\":5242:5309   */\n  tag_42\n  jump\t// in\ntag_112:\n    /* \"#utility.yul\":5336:5337   */\n  0x00\n    /* \"#utility.yul\":5360:5364   */\n  0x20\n    /* \"#utility.yul\":5347:5364   */\n  swap1\n  pop\n    /* \"#utility.yul\":5392:5394   */\n  0x1f\n    /* \"#utility.yul\":5384:5390   */\n  dup4\n    /* \"#utility.yul\":5381:5395   */\n  gt\n    /* \"#utility.yul\":5409:5410   */\n  0x01\n    /* \"#utility.yul\":5404:6022   */\n  dup2\n  eq\n  tag_114\n  jumpi\n    /* \"#utility.yul\":6066:6067   */\n  0x00\n    /* \"#utility.yul\":6083:6089   */\n  dup5\n    /* \"#utility.yul\":6080:6157   */\n  iszero\n  tag_115\n  jumpi\n    /* \"#utility.yul\":6132:6141   */\n  dup3\n    /* \"#utility.yul\":6127:6130   */\n  dup8\n    /* \"#utility.yul\":6123:6142   */\n  add\n    /* \"#utility.yul\":6117:6143   */\n  mload\n    /* \"#utility.yul\":6108:6143   */\n  swap1\n  pop\n    /* \"#utility.yul\":6080:6157   */\ntag_115:\n    /* \"#utility.yul\":6183:6250   */\n  tag_116\n    /* \"#utility.yul\":6243:6249   */\n  dup6\n    /* \"#utility.yul\":6236:6241   */\n  dup3\n    /* \"#utility.yul\":6183:6250   */\n  tag_45\n  jump\t// in\ntag_116:\n    /* \"#utility.yul\":6177:6181   */\n  dup7\n    /* \"#utility.yul\":6170:6251   */\n  sstore\n    /* \"#utility.yul\":6039:6261   */\n  pop\n    /* \"#utility.yul\":5374:6261   */\n  jump(tag_113)\n    /* \"#utility.yul\":5404:6022   */\ntag_114:\n    /* \"#utility.yul\":5456:5460   */\n  0x1f\n    /* \"#utility.yul\":5452:5461   */\n  not\n    /* \"#utility.yul\":5444:5450   */\n  dup5\n    /* \"#utility.yul\":5440:5462   */\n  and\n    /* \"#utility.yul\":5490:5527   */\n  tag_117\n    /* \"#utility.yul\":5522:5526   */\n  dup7\n    /* \"#utility.yul\":5490:5527   */\n  tag_30\n  jump\t// in\ntag_117:\n    /* \"#utility.yul\":5549:5550   */\n  0x00\n    /* \"#utility.yul\":5563:5771   */\ntag_118:\n    /* \"#utility.yul\":5577:5584   */\n  dup3\n    /* \"#utility.yul\":5574:5575   */\n  dup2\n    /* \"#utility.yul\":5571:5585   */\n  lt\n    /* \"#utility.yul\":5563:5771   */\n  iszero\n  tag_120\n  jumpi\n    /* \"#utility.yul\":5656:5665   */\n  dup5\n    /* \"#utility.yul\":5651:5654   */\n  dup10\n    /* \"#utility.yul\":5647:5666   */\n  add\n    /* \"#utility.yul\":5641:5667   */\n  mload\n    /* \"#utility.yul\":5633:5639   */\n  dup3\n    /* \"#utility.yul\":5626:5668   */\n  sstore\n    /* \"#utility.yul\":5707:5708   */\n  0x01\n    /* \"#utility.yul\":5699:5705   */\n  dup3\n    /* \"#utility.yul\":5695:5709   */\n  add\n    /* \"#utility.yul\":5685:5709   */\n  swap2\n  pop\n    /* \"#utility.yul\":5754:5756   */\n  0x20\n    /* \"#utility.yul\":5743:5752   */\n  dup6\n    /* \"#utility.yul\":5739:5757   */\n  add\n    /* \"#utility.yul\":5726:5757   */\n  swap5\n  pop\n    /* \"#utility.yul\":5600:5604   */\n  0x20\n    /* \"#utility.yul\":5597:5598   */\n  dup2\n    /* \"#utility.yul\":5593:5605   */\n  add\n    /* \"#utility.yul\":5588:5605   */\n  swap1\n  pop\n    /* \"#utility.yul\":5563:5771   */\n  jump(tag_118)\ntag_120:\n    /* \"#utility.yul\":5799:5805   */\n  dup7\n    /* \"#utility.yul\":5790:5797   */\n  dup4\n    /* \"#utility.yul\":5787:5806   */\n  lt\n    /* \"#utility.yul\":5784:5963   */\n  iszero\n  tag_121\n  jumpi\n    /* \"#utility.yul\":5857:5866   */\n  dup5\n    /* \"#utility.yul\":5852:5855   */\n  dup10\n    /* \"#utility.yul\":5848:5867   */\n  add\n    /* \"#utility.yul\":5842:5868   */\n  mload\n    /* \"#utility.yul\":5900:5948   */\n  tag_122\n    /* \"#utility.yul\":5942:5946   */\n  0x1f\n    /* \"#utility.yul\":5934:5940   */\n  dup10\n    /* \"#utility.yul\":5930:5947   */\n  and\n    /* \"#utility.yul\":5919:5928   */\n  dup3\n    /* \"#utility.yul\":5900:5948   */\n  tag_44\n  jump\t// in\ntag_122:\n    /* \"#utility.yul\":5892:5898   */\n  dup4\n    /* \"#utility.yul\":5885:5949   */\n  sstore\n    /* \"#utility.yul\":5807:5963   */\n  pop\n    /* \"#utility.yul\":5784:5963   */\ntag_121:\n    /* \"#utility.yul\":6009:6010   */\n  0x01\n    /* \"#utility.yul\":6005:6006   */\n  0x02\n    /* \"#utility.yul\":5997:6003   */\n  dup9\n    /* \"#utility.yul\":5993:6007   */\n  mul\n    /* \"#utility.yul\":5989:6011   */\n  add\n    /* \"#utility.yul\":5983:5987   */\n  dup9\n    /* \"#utility.yul\":5976:6012   */\n  sstore\n    /* \"#utility.yul\":5411:6022   */\n  pop\n  pop\n  pop\n    /* \"#utility.yul\":5374:6261   */\ntag_113:\n  pop\n    /* \"#utility.yul\":4964:6267   */\n  pop\n  pop\n  pop\n    /* \"#utility.yul\":4872:6267   */\n  pop\n  pop\n  jump\t// out\n    /* \"#utility.yul\":6273:6382   */\ntag_46:\n    /* \"#utility.yul\":6354:6375   */\n  tag_124\n    /* \"#utility.yul\":6369:6374   */\n  dup2\n    /* \"#utility.yul\":6354:6375   */\n  tag_23\n  jump\t// in\ntag_124:\n    /* \"#utility.yul\":6349:6352   */\n  dup3\n    /* \"#utility.yul\":6342:6376   */\n  mstore\n    /* \"#utility.yul\":6273:6382   */\n  pop\n  pop\n  jump\t// out\n    /* \"#utility.yul\":6388:6598   */\ntag_12:\n    /* \"#utility.yul\":6475:6479   */\n  0x00\n    /* \"#utility.yul\":6513:6515   */\n  0x20\n    /* \"#utility.yul\":6502:6511   */\n  dup3\n    /* \"#utility.yul\":6498:6516   */\n  add\n    /* \"#utility.yul\":6490:6516   */\n  swap1\n  pop\n    /* \"#utility.yul\":6526:6591   */\n  tag_126\n    /* \"#utility.yul\":6588:6589   */\n  0x00\n    /* \"#utility.yul\":6577:6586   */\n  dup4\n    /* \"#utility.yul\":6573:6590   */\n  add\n    /* \"#utility.yul\":6564:6570   */\n  dup5\n    /* \"#utility.yul\":6526:6591   */\n  tag_46\n  jump\t// in\ntag_126:\n    /* \"#utility.yul\":6388:6598   */\n  swap3\n  swap2\n  pop\n  pop\n  jump\t// out\n    /* \"#utility.yul\":6604:6784   */\ntag_47:\n    /* \"#utility.yul\":6652:6729   */\n  0x4e487b7100000000000000000000000000000000000000000000000000000000\n    /* \"#utility.yul\":6649:6650   */\n  0x00\n    /* \"#utility.yul\":6642:6730   */\n  mstore\n    /* \"#utility.yul\":6749:6753   */\n  0x11\n    /* \"#utility.yul\":6746:6747   */\n  0x04\n    /* \"#utility.yul\":6739:6754   */\n  mstore\n    /* \"#utility.yul\":6773:6777   */\n  0x24\n    /* \"#utility.yul\":6770:6771   */\n  0x00\n    /* \"#utility.yul\":6763:6778   */\n  revert\n    /* \"#utility.yul\":6790:7023   */\ntag_18:\n    /* \"#utility.yul\":6829:6832   */\n  0x00\n    /* \"#utility.yul\":6852:6876   */\n  tag_129\n    /* \"#utility.yul\":6870:6875   */\n  dup3\n    /* \"#utility.yul\":6852:6876   */\n  tag_34\n  jump\t// in\ntag_129:\n    /* \"#utility.yul\":6843:6876   */\n  swap2\n  pop\n    /* \"#utility.yul\":6898:6964   */\n  0xffffffffffffffffffffffffffffffffffffffffffffffffffffffffffffffff\n    /* \"#utility.yul\":6891:6896   */\n  dup3\n    /* \"#utility.yul\":6888:6965   */\n  sub\n    /* \"#utility.yul\":6885:6988   */\n  tag_130\n  jumpi\n    /* \"#utility.yul\":6968:6986   */\n  tag_131\n  tag_47\n  jump\t// in\ntag_131:\n    /* \"#utility.yul\":6885:6988   */\ntag_130:\n    /* \"#utility.yul\":7015:7016   */\n  0x01\n    /* \"#utility.yul\":7008:7013   */\n  dup3\n    /* \"#utility.yul\":7004:7017   */\n  add\n    /* \"#utility.yul\":6997:7017   */\n  swap1\n  pop\n    /* \"#utility.yul\":6790:7023   */\n  swap2\n  swap1\n  pop\n  jump\t// out\n    /* \"Platzi Solidity Intro/Events.sol\":192:619  contract Envents{... */\ntag_19:\n  dataSize(sub_0)\n  dup1\n  dataOffset(sub_0)\n  0x00\n  codecopy\n  0x00\n  return\nstop\n\nsub_0: assembly {\n        /* \"Platzi Solidity Intro/Events.sol\":192:619  contract Envents{... */\n      mstore(0x40, 0x80)\n      callvalue\n      dup1\n      iszero\n      tag_1\n      jumpi\n      0x00\n      dup1\n      revert\n    tag_1:\n      pop\n      jumpi(tag_2, lt(calldatasize, 0x04))\n      shr(0xe0, calldataload(0x00))\n      dup1\n      0x65372147\n      eq\n      tag_3\n      jumpi\n      dup1\n      0xd39fa233\n      eq\n      tag_4\n      jumpi\n    tag_2:\n      0x00\n      dup1\n      revert\n        /* \"Platzi Solidity Intro/Events.sol\":243:263  string public result */\n    tag_3:\n      tag_5\n      tag_6\n      jump\t// in\n    tag_5:\n      mload(0x40)\n      tag_7\n      swap2\n      swap1\n      tag_8\n      jump\t// in\n    tag_7:\n      mload(0x40)\n      dup1\n      swap2\n      sub\n      swap1\n      return\n        /* \"Platzi Solidity Intro/Events.sol\":215:236  uint[] public numbers */\n    tag_4:\n      tag_9\n      0x04\n      dup1\n      calldatasize\n      sub\n      dup2\n      add\n      swap1\n      tag_10\n      swap2\n      swap1\n      tag_11\n      jump\t// in\n    tag_10:\n      tag_12\n      jump\t// in\n    tag_9:\n      mload(0x40)\n      tag_13\n      swap2\n      swap1\n      tag_14\n      jump\t// in\n    tag_13:\n      mload(0x40)\n      dup1\n      swap2\n      sub\n      swap1\n      return\n        /* \"Platzi Solidity Intro/Events.sol\":243:263  string public result */\n    tag_6:\n      0x01\n      dup1\n      sload\n      tag_15\n      swap1\n      tag_16\n      jump\t// in\n    tag_15:\n      dup1\n      0x1f\n      add\n      0x20\n      dup1\n      swap2\n      div\n      mul\n      0x20\n      add\n      mload(0x40)\n      swap1\n      dup2\n      add\n      0x40\n      mstore\n      dup1\n      swap3\n      swap2\n      swap1\n      dup2\n      dup2\n      mstore\n      0x20\n      add\n      dup3\n      dup1\n      sload\n      tag_17\n      swap1\n      tag_16\n      jump\t// in\n    tag_17:\n      dup1\n      iszero\n      tag_18\n      jumpi\n      dup1\n      0x1f\n      lt\n      tag_19\n      jumpi\n      0x0100\n      dup1\n      dup4\n      sload\n      div\n      mul\n      dup4\n      mstore\n      swap2\n      0x20\n      add\n      swap2\n      jump(tag_18)\n    tag_19:\n      dup3\n      add\n      swap2\n      swap1\n      0x00\n      mstore\n      keccak256(0x00, 0x20)\n      swap1\n    tag_20:\n      dup2\n      sload\n      dup2\n      mstore\n      swap1\n      0x01\n      add\n      swap1\n      0x20\n      add\n      dup1\n      dup4\n      gt\n      tag_20\n      jumpi\n      dup3\n      swap1\n      sub\n      0x1f\n      and\n      dup3\n      add\n      swap2\n    tag_18:\n      pop\n      pop\n      pop\n      pop\n      pop\n      dup2\n      jump\t// out\n        /* \"Platzi Solidity Intro/Events.sol\":215:236  uint[] public numbers */\n    tag_12:\n      0x00\n      dup2\n      dup2\n      sload\n      dup2\n      lt\n      tag_21\n      jumpi\n      0x00\n      dup1\n      revert\n    tag_21:\n      swap1\n      0x00\n      mstore\n      keccak256(0x00, 0x20)\n      add\n      0x00\n      swap2\n      pop\n      swap1\n      pop\n      sload\n      dup2\n      jump\t// out\n        /* \"#utility.yul\":7:106   */\n    tag_23:\n        /* \"#utility.yul\":59:65   */\n      0x00\n        /* \"#utility.yul\":93:98   */\n      dup2\n        /* \"#utility.yul\":87:99   */\n      mload\n        /* \"#utility.yul\":77:99   */\n      swap1\n      pop\n        /* \"#utility.yul\":7:106   */\n      swap2\n      swap1\n      pop\n      jump\t// out\n        /* \"#utility.yul\":112:281   */\n    tag_24:\n        /* \"#utility.yul\":196:207   */\n      0x00\n        /* \"#utility.yul\":230:236   */\n      dup3\n        /* \"#utility.yul\":225:228   */\n      dup3\n        /* \"#utility.yul\":218:237   */\n      mstore\n        /* \"#utility.yul\":270:274   */\n      0x20\n        /* \"#utility.yul\":265:268   */\n      dup3\n        /* \"#utility.yul\":261:275   */\n      add\n        /* \"#utility.yul\":246:275   */\n      swap1\n      pop\n        /* \"#utility.yul\":112:281   */\n      swap3\n      swap2\n      pop\n      pop\n      jump\t// out\n        /* \"#utility.yul\":287:533   */\n    tag_25:\n        /* \"#utility.yul\":368:369   */\n      0x00\n        /* \"#utility.yul\":378:491   */\n    tag_40:\n        /* \"#utility.yul\":392:398   */\n      dup4\n        /* \"#utility.yul\":389:390   */\n      dup2\n        /* \"#utility.yul\":386:399   */\n      lt\n        /* \"#utility.yul\":378:491   */\n      iszero\n      tag_42\n      jumpi\n        /* \"#utility.yul\":477:478   */\n      dup1\n        /* \"#utility.yul\":472:475   */\n      dup3\n        /* \"#utility.yul\":468:479   */\n      add\n        /* \"#utility.yul\":462:480   */\n      mload\n        /* \"#utility.yul\":458:459   */\n      dup2\n        /* \"#utility.yul\":453:456   */\n      dup5\n        /* \"#utility.yul\":449:460   */\n      add\n        /* \"#utility.yul\":442:481   */\n      mstore\n        /* \"#utility.yul\":414:416   */\n      0x20\n        /* \"#utility.yul\":411:412   */\n      dup2\n        /* \"#utility.yul\":407:417   */\n      add\n        /* \"#utility.yul\":402:417   */\n      swap1\n      pop\n        /* \"#utility.yul\":378:491   */\n      jump(tag_40)\n    tag_42:\n        /* \"#utility.yul\":525:526   */\n      0x00\n        /* \"#utility.yul\":516:522   */\n      dup5\n        /* \"#utility.yul\":511:514   */\n      dup5\n        /* \"#utility.yul\":507:523   */\n      add\n        /* \"#utility.yul\":500:527   */\n      mstore\n        /* \"#utility.yul\":349:533   */\n      pop\n        /* \"#utility.yul\":287:533   */\n      pop\n      pop\n      pop\n      jump\t// out\n        /* \"#utility.yul\":539:641   */\n    tag_26:\n        /* \"#utility.yul\":580:586   */\n      0x00\n        /* \"#utility.yul\":631:633   */\n      0x1f\n        /* \"#utility.yul\":627:634   */\n      not\n        /* \"#utility.yul\":622:624   */\n      0x1f\n        /* \"#utility.yul\":615:620   */\n      dup4\n        /* \"#utility.yul\":611:625   */\n      add\n        /* \"#utility.yul\":607:635   */\n      and\n        /* \"#utility.yul\":597:635   */\n      swap1\n      pop\n        /* \"#utility.yul\":539:641   */\n      swap2\n      swap1\n      pop\n      jump\t// out\n        /* \"#utility.yul\":647:1024   */\n    tag_27:\n        /* \"#utility.yul\":735:738   */\n      0x00\n        /* \"#utility.yul\":763:802   */\n      tag_45\n        /* \"#utility.yul\":796:801   */\n      dup3\n        /* \"#utility.yul\":763:802   */\n      tag_23\n      jump\t// in\n    tag_45:\n        /* \"#utility.yul\":818:889   */\n      tag_46\n        /* \"#utility.yul\":882:888   */\n      dup2\n        /* \"#utility.yul\":877:880   */\n      dup6\n        /* \"#utility.yul\":818:889   */\n      tag_24\n      jump\t// in\n    tag_46:\n        /* \"#utility.yul\":811:889   */\n      swap4\n      pop\n        /* \"#utility.yul\":898:963   */\n      tag_47\n        /* \"#utility.yul\":956:962   */\n      dup2\n        /* \"#utility.yul\":951:954   */\n      dup6\n        /* \"#utility.yul\":944:948   */\n      0x20\n        /* \"#utility.yul\":937:942   */\n      dup7\n        /* \"#utility.yul\":933:949   */\n      add\n        /* \"#utility.yul\":898:963   */\n      tag_25\n      jump\t// in\n    tag_47:\n        /* \"#utility.yul\":988:1017   */\n      tag_48\n        /* \"#utility.yul\":1010:1016   */\n      dup2\n        /* \"#utility.yul\":988:1017   */\n      tag_26\n      jump\t// in\n    tag_48:\n        /* \"#utility.yul\":983:986   */\n      dup5\n        /* \"#utility.yul\":979:1018   */\n      add\n        /* \"#utility.yul\":972:1018   */\n      swap2\n      pop\n        /* \"#utility.yul\":739:1024   */\n      pop\n        /* \"#utility.yul\":647:1024   */\n      swap3\n      swap2\n      pop\n      pop\n      jump\t// out\n        /* \"#utility.yul\":1030:1343   */\n    tag_8:\n        /* \"#utility.yul\":1143:1147   */\n      0x00\n        /* \"#utility.yul\":1181:1183   */\n      0x20\n        /* \"#utility.yul\":1170:1179   */\n      dup3\n        /* \"#utility.yul\":1166:1184   */\n      add\n        /* \"#utility.yul\":1158:1184   */\n      swap1\n      pop\n        /* \"#utility.yul\":1230:1239   */\n      dup2\n        /* \"#utility.yul\":1224:1228   */\n      dup2\n        /* \"#utility.yul\":1220:1240   */\n      sub\n        /* \"#utility.yul\":1216:1217   */\n      0x00\n        /* \"#utility.yul\":1205:1214   */\n      dup4\n        /* \"#utility.yul\":1201:1218   */\n      add\n        /* \"#utility.yul\":1194:1241   */\n      mstore\n        /* \"#utility.yul\":1258:1336   */\n      tag_50\n        /* \"#utility.yul\":1331:1335   */\n      dup2\n        /* \"#utility.yul\":1322:1328   */\n      dup5\n        /* \"#utility.yul\":1258:1336   */\n      tag_27\n      jump\t// in\n    tag_50:\n        /* \"#utility.yul\":1250:1336   */\n      swap1\n      pop\n        /* \"#utility.yul\":1030:1343   */\n      swap3\n      swap2\n      pop\n      pop\n      jump\t// out\n        /* \"#utility.yul\":1430:1547   */\n    tag_29:\n        /* \"#utility.yul\":1539:1540   */\n      0x00\n        /* \"#utility.yul\":1536:1537   */\n      dup1\n        /* \"#utility.yul\":1529:1541   */\n      revert\n        /* \"#utility.yul\":1676:1753   */\n    tag_31:\n        /* \"#utility.yul\":1713:1720   */\n      0x00\n        /* \"#utility.yul\":1742:1747   */\n      dup2\n        /* \"#utility.yul\":1731:1747   */\n      swap1\n      pop\n        /* \"#utility.yul\":1676:1753   */\n      swap2\n      swap1\n      pop\n      jump\t// out\n        /* \"#utility.yul\":1759:1881   */\n    tag_32:\n        /* \"#utility.yul\":1832:1856   */\n      tag_56\n        /* \"#utility.yul\":1850:1855   */\n      dup2\n        /* \"#utility.yul\":1832:1856   */\n      tag_31\n      jump\t// in\n    tag_56:\n        /* \"#utility.yul\":1825:1830   */\n      dup2\n        /* \"#utility.yul\":1822:1857   */\n      eq\n        /* \"#utility.yul\":1812:1875   */\n      tag_57\n      jumpi\n        /* \"#utility.yul\":1871:1872   */\n      0x00\n        /* \"#utility.yul\":1868:1869   */\n      dup1\n        /* \"#utility.yul\":1861:1873   */\n      revert\n        /* \"#utility.yul\":1812:1875   */\n    tag_57:\n        /* \"#utility.yul\":1759:1881   */\n      pop\n      jump\t// out\n        /* \"#utility.yul\":1887:2026   */\n    tag_33:\n        /* \"#utility.yul\":1933:1938   */\n      0x00\n        /* \"#utility.yul\":1971:1977   */\n      dup2\n        /* \"#utility.yul\":1958:1978   */\n      calldataload\n        /* \"#utility.yul\":1949:1978   */\n      swap1\n      pop\n        /* \"#utility.yul\":1987:2020   */\n      tag_59\n        /* \"#utility.yul\":2014:2019   */\n      dup2\n        /* \"#utility.yul\":1987:2020   */\n      tag_32\n      jump\t// in\n    tag_59:\n        /* \"#utility.yul\":1887:2026   */\n      swap3\n      swap2\n      pop\n      pop\n      jump\t// out\n        /* \"#utility.yul\":2032:2361   */\n    tag_11:\n        /* \"#utility.yul\":2091:2097   */\n      0x00\n        /* \"#utility.yul\":2140:2142   */\n      0x20\n        /* \"#utility.yul\":2128:2137   */\n      dup3\n        /* \"#utility.yul\":2119:2126   */\n      dup5\n        /* \"#utility.yul\":2115:2138   */\n      sub\n        /* \"#utility.yul\":2111:2143   */\n      slt\n        /* \"#utility.yul\":2108:2227   */\n      iszero\n      tag_61\n      jumpi\n        /* \"#utility.yul\":2146:2225   */\n      tag_62\n      tag_29\n      jump\t// in\n    tag_62:\n        /* \"#utility.yul\":2108:2227   */\n    tag_61:\n        /* \"#utility.yul\":2266:2267   */\n      0x00\n        /* \"#utility.yul\":2291:2344   */\n      tag_63\n        /* \"#utility.yul\":2336:2343   */\n      dup5\n        /* \"#utility.yul\":2327:2333   */\n      dup3\n        /* \"#utility.yul\":2316:2325   */\n      dup6\n        /* \"#utility.yul\":2312:2334   */\n      add\n        /* \"#utility.yul\":2291:2344   */\n      tag_33\n      jump\t// in\n    tag_63:\n        /* \"#utility.yul\":2281:2344   */\n      swap2\n      pop\n        /* \"#utility.yul\":2237:2354   */\n      pop\n        /* \"#utility.yul\":2032:2361   */\n      swap3\n      swap2\n      pop\n      pop\n      jump\t// out\n        /* \"#utility.yul\":2367:2485   */\n    tag_34:\n        /* \"#utility.yul\":2454:2478   */\n      tag_65\n        /* \"#utility.yul\":2472:2477   */\n      dup2\n        /* \"#utility.yul\":2454:2478   */\n      tag_31\n      jump\t// in\n    tag_65:\n        /* \"#utility.yul\":2449:2452   */\n      dup3\n        /* \"#utility.yul\":2442:2479   */\n      mstore\n        /* \"#utility.yul\":2367:2485   */\n      pop\n      pop\n      jump\t// out\n        /* \"#utility.yul\":2491:2713   */\n    tag_14:\n        /* \"#utility.yul\":2584:2588   */\n      0x00\n        /* \"#utility.yul\":2622:2624   */\n      0x20\n        /* \"#utility.yul\":2611:2620   */\n      dup3\n        /* \"#utility.yul\":2607:2625   */\n      add\n        /* \"#utility.yul\":2599:2625   */\n      swap1\n      pop\n        /* \"#utility.yul\":2635:2706   */\n      tag_67\n        /* \"#utility.yul\":2703:2704   */\n      0x00\n        /* \"#utility.yul\":2692:2701   */\n      dup4\n        /* \"#utility.yul\":2688:2705   */\n      add\n        /* \"#utility.yul\":2679:2685   */\n      dup5\n        /* \"#utility.yul\":2635:2706   */\n      tag_34\n      jump\t// in\n    tag_67:\n        /* \"#utility.yul\":2491:2713   */\n      swap3\n      swap2\n      pop\n      pop\n      jump\t// out\n        /* \"#utility.yul\":2719:2899   */\n    tag_35:\n        /* \"#utility.yul\":2767:2844   */\n      0x4e487b7100000000000000000000000000000000000000000000000000000000\n        /* \"#utility.yul\":2764:2765   */\n      0x00\n        /* \"#utility.yul\":2757:2845   */\n      mstore\n        /* \"#utility.yul\":2864:2868   */\n      0x22\n        /* \"#utility.yul\":2861:2862   */\n      0x04\n        /* \"#utility.yul\":2854:2869   */\n      mstore\n        /* \"#utility.yul\":2888:2892   */\n      0x24\n        /* \"#utility.yul\":2885:2886   */\n      0x00\n        /* \"#utility.yul\":2878:2893   */\n      revert\n        /* \"#utility.yul\":2905:3225   */\n    tag_16:\n        /* \"#utility.yul\":2949:2955   */\n      0x00\n        /* \"#utility.yul\":2986:2987   */\n      0x02\n        /* \"#utility.yul\":2980:2984   */\n      dup3\n        /* \"#utility.yul\":2976:2988   */\n      div\n        /* \"#utility.yul\":2966:2988   */\n      swap1\n      pop\n        /* \"#utility.yul\":3033:3034   */\n      0x01\n        /* \"#utility.yul\":3027:3031   */\n      dup3\n        /* \"#utility.yul\":3023:3035   */\n      and\n        /* \"#utility.yul\":3054:3072   */\n      dup1\n        /* \"#utility.yul\":3044:3125   */\n      tag_70\n      jumpi\n        /* \"#utility.yul\":3110:3114   */\n      0x7f\n        /* \"#utility.yul\":3102:3108   */\n      dup3\n        /* \"#utility.yul\":3098:3115   */\n      and\n        /* \"#utility.yul\":3088:3115   */\n      swap2\n      pop\n        /* \"#utility.yul\":3044:3125   */\n    tag_70:\n        /* \"#utility.yul\":3172:3174   */\n      0x20\n        /* \"#utility.yul\":3164:3170   */\n      dup3\n        /* \"#utility.yul\":3161:3175   */\n      lt\n        /* \"#utility.yul\":3141:3159   */\n      dup2\n        /* \"#utility.yul\":3138:3176   */\n      sub\n        /* \"#utility.yul\":3135:3219   */\n      tag_71\n      jumpi\n        /* \"#utility.yul\":3191:3209   */\n      tag_72\n      tag_35\n      jump\t// in\n    tag_72:\n        /* \"#utility.yul\":3135:3219   */\n    tag_71:\n        /* \"#utility.yul\":2956:3225   */\n      pop\n        /* \"#utility.yul\":2905:3225   */\n      swap2\n      swap1\n      pop\n      jump\t// out\n\n    auxdata: 0xa2646970667358221220115b95deebb93e8cbf9674c3b2d4409e9d6580a291ed4f03fa2496af1115d65a64736f6c63430008120033\n}\n",
				"bytecode": {
					"linkReferences": {},
					"object": "60806040523480156200001157600080fd5b5060405162000904380380620009048339818101604052810190620000379190620001a2565b80156200008b576040518060400160405280601081526020017f436f6e7469646974696f6e205472756500000000000000000000000000000000815250600190816200008491906200044e565b50620000d3565b6040518060400160405280601181526020017f436f6e7469646974696f6e2046616c736500000000000000000000000000000081525060019081620000d191906200044e565b505b7ffda8fe1708c5369f6e502b8b035ac38701e2975c30314cf86b41951ebdaa107c8160405162000104919062000546565b60405180910390a160005b600a8110156200015857600081908060018154018082558091505060019003906000526020600020016000909190919091505580806200014f9062000592565b9150506200010f565b5050620005df565b600080fd5b60008115159050919050565b6200017c8162000165565b81146200018857600080fd5b50565b6000815190506200019c8162000171565b92915050565b600060208284031215620001bb57620001ba62000160565b5b6000620001cb848285016200018b565b91505092915050565b600081519050919050565b7f4e487b7100000000000000000000000000000000000000000000000000000000600052604160045260246000fd5b7f4e487b7100000000000000000000000000000000000000000000000000000000600052602260045260246000fd5b600060028204905060018216806200025657607f821691505b6020821081036200026c576200026b6200020e565b5b50919050565b60008190508160005260206000209050919050565b60006020601f8301049050919050565b600082821b905092915050565b600060088302620002d67fffffffffffffffffffffffffffffffffffffffffffffffffffffffffffffffff8262000297565b620002e2868362000297565b95508019841693508086168417925050509392505050565b6000819050919050565b6000819050919050565b60006200032f620003296200032384620002fa565b62000304565b620002fa565b9050919050565b6000819050919050565b6200034b836200030e565b620003636200035a8262000336565b848454620002a4565b825550505050565b600090565b6200037a6200036b565b6200038781848462000340565b505050565b5b81811015620003af57620003a360008262000370565b6001810190506200038d565b5050565b601f821115620003fe57620003c88162000272565b620003d38462000287565b81016020851015620003e3578190505b620003fb620003f28562000287565b8301826200038c565b50505b505050565b600082821c905092915050565b6000620004236000198460080262000403565b1980831691505092915050565b60006200043e838362000410565b9150826002028217905092915050565b6200045982620001d4565b67ffffffffffffffff811115620004755762000474620001df565b5b6200048182546200023d565b6200048e828285620003b3565b600060209050601f831160018114620004c65760008415620004b1578287015190505b620004bd858262000430565b8655506200052d565b601f198416620004d68662000272565b60005b828110156200050057848901518255600182019150602085019450602081019050620004d9565b868310156200052057848901516200051c601f89168262000410565b8355505b6001600288020188555050505b505050505050565b620005408162000165565b82525050565b60006020820190506200055d600083018462000535565b92915050565b7f4e487b7100000000000000000000000000000000000000000000000000000000600052601160045260246000fd5b60006200059f82620002fa565b91507fffffffffffffffffffffffffffffffffffffffffffffffffffffffffffffffff8203620005d457620005d362000563565b5b600182019050919050565b61031580620005ef6000396000f3fe608060405234801561001057600080fd5b50600436106100365760003560e01c8063653721471461003b578063d39fa23314610059575b600080fd5b610043610089565b60405161005091906101cb565b60405180910390f35b610073600480360381019061006e9190610228565b610117565b6040516100809190610264565b60405180910390f35b60018054610096906102ae565b80601f01602080910402602001604051908101604052809291908181526020018280546100c2906102ae565b801561010f5780601f106100e45761010080835404028352916020019161010f565b820191906000526020600020905b8154815290600101906020018083116100f257829003601f168201915b505050505081565b6000818154811061012757600080fd5b906000526020600020016000915090505481565b600081519050919050565b600082825260208201905092915050565b60005b8381101561017557808201518184015260208101905061015a565b60008484015250505050565b6000601f19601f8301169050919050565b600061019d8261013b565b6101a78185610146565b93506101b7818560208601610157565b6101c081610181565b840191505092915050565b600060208201905081810360008301526101e58184610192565b905092915050565b600080fd5b6000819050919050565b610205816101f2565b811461021057600080fd5b50565b600081359050610222816101fc565b92915050565b60006020828403121561023e5761023d6101ed565b5b600061024c84828501610213565b91505092915050565b61025e816101f2565b82525050565b60006020820190506102796000830184610255565b92915050565b7f4e487b7100000000000000000000000000000000000000000000000000000000600052602260045260246000fd5b600060028204905060018216806102c657607f821691505b6020821081036102d9576102d861027f565b5b5091905056fea2646970667358221220115b95deebb93e8cbf9674c3b2d4409e9d6580a291ed4f03fa2496af1115d65a64736f6c63430008120033",
					"opcodes": "PUSH1 0x80 PUSH1 0x40 MSTORE CALLVALUE DUP1 ISZERO PUSH3 0x11 JUMPI PUSH1 0x0 DUP1 REVERT JUMPDEST POP PUSH1 0x40 MLOAD PUSH3 0x904 CODESIZE SUB DUP1 PUSH3 0x904 DUP4 CODECOPY DUP2 DUP2 ADD PUSH1 0x40 MSTORE DUP2 ADD SWAP1 PUSH3 0x37 SWAP2 SWAP1 PUSH3 0x1A2 JUMP JUMPDEST DUP1 ISZERO PUSH3 0x8B JUMPI PUSH1 0x40 MLOAD DUP1 PUSH1 0x40 ADD PUSH1 0x40 MSTORE DUP1 PUSH1 0x10 DUP2 MSTORE PUSH1 0x20 ADD PUSH32 0x436F6E7469646974696F6E205472756500000000000000000000000000000000 DUP2 MSTORE POP PUSH1 0x1 SWAP1 DUP2 PUSH3 0x84 SWAP2 SWAP1 PUSH3 0x44E JUMP JUMPDEST POP PUSH3 0xD3 JUMP JUMPDEST PUSH1 0x40 MLOAD DUP1 PUSH1 0x40 ADD PUSH1 0x40 MSTORE DUP1 PUSH1 0x11 DUP2 MSTORE PUSH1 0x20 ADD PUSH32 0x436F6E7469646974696F6E2046616C7365000000000000000000000000000000 DUP2 MSTORE POP PUSH1 0x1 SWAP1 DUP2 PUSH3 0xD1 SWAP2 SWAP1 PUSH3 0x44E JUMP JUMPDEST POP JUMPDEST PUSH32 0xFDA8FE1708C5369F6E502B8B035AC38701E2975C30314CF86B41951EBDAA107C DUP2 PUSH1 0x40 MLOAD PUSH3 0x104 SWAP2 SWAP1 PUSH3 0x546 JUMP JUMPDEST PUSH1 0x40 MLOAD DUP1 SWAP2 SUB SWAP1 LOG1 PUSH1 0x0 JUMPDEST PUSH1 0xA DUP2 LT ISZERO PUSH3 0x158 JUMPI PUSH1 0x0 DUP2 SWAP1 DUP1 PUSH1 0x1 DUP2 SLOAD ADD DUP1 DUP3 SSTORE DUP1 SWAP2 POP POP PUSH1 0x1 SWAP1 SUB SWAP1 PUSH1 0x0 MSTORE PUSH1 0x20 PUSH1 0x0 KECCAK256 ADD PUSH1 0x0 SWAP1 SWAP2 SWAP1 SWAP2 SWAP1 SWAP2 POP SSTORE DUP1 DUP1 PUSH3 0x14F SWAP1 PUSH3 0x592 JUMP JUMPDEST SWAP2 POP POP PUSH3 0x10F JUMP JUMPDEST POP POP PUSH3 0x5DF JUMP JUMPDEST PUSH1 0x0 DUP1 REVERT JUMPDEST PUSH1 0x0 DUP2 ISZERO ISZERO SWAP1 POP SWAP2 SWAP1 POP JUMP JUMPDEST PUSH3 0x17C DUP2 PUSH3 0x165 JUMP JUMPDEST DUP2 EQ PUSH3 0x188 JUMPI PUSH1 0x0 DUP1 REVERT JUMPDEST POP JUMP JUMPDEST PUSH1 0x0 DUP2 MLOAD SWAP1 POP PUSH3 0x19C DUP2 PUSH3 0x171 JUMP JUMPDEST SWAP3 SWAP2 POP POP JUMP JUMPDEST PUSH1 0x0 PUSH1 0x20 DUP3 DUP5 SUB SLT ISZERO PUSH3 0x1BB JUMPI PUSH3 0x1BA PUSH3 0x160 JUMP JUMPDEST JUMPDEST PUSH1 0x0 PUSH3 0x1CB DUP5 DUP3 DUP6 ADD PUSH3 0x18B JUMP JUMPDEST SWAP2 POP POP SWAP3 SWAP2 POP POP JUMP JUMPDEST PUSH1 0x0 DUP2 MLOAD SWAP1 POP SWAP2 SWAP1 POP JUMP JUMPDEST PUSH32 0x4E487B7100000000000000000000000000000000000000000000000000000000 PUSH1 0x0 MSTORE PUSH1 0x41 PUSH1 0x4 MSTORE PUSH1 0x24 PUSH1 0x0 REVERT JUMPDEST PUSH32 0x4E487B7100000000000000000000000000000000000000000000000000000000 PUSH1 0x0 MSTORE PUSH1 0x22 PUSH1 0x4 MSTORE PUSH1 0x24 PUSH1 0x0 REVERT JUMPDEST PUSH1 0x0 PUSH1 0x2 DUP3 DIV SWAP1 POP PUSH1 0x1 DUP3 AND DUP1 PUSH3 0x256 JUMPI PUSH1 0x7F DUP3 AND SWAP2 POP JUMPDEST PUSH1 0x20 DUP3 LT DUP2 SUB PUSH3 0x26C JUMPI PUSH3 0x26B PUSH3 0x20E JUMP JUMPDEST JUMPDEST POP SWAP2 SWAP1 POP JUMP JUMPDEST PUSH1 0x0 DUP2 SWAP1 POP DUP2 PUSH1 0x0 MSTORE PUSH1 0x20 PUSH1 0x0 KECCAK256 SWAP1 POP SWAP2 SWAP1 POP JUMP JUMPDEST PUSH1 0x0 PUSH1 0x20 PUSH1 0x1F DUP4 ADD DIV SWAP1 POP SWAP2 SWAP1 POP JUMP JUMPDEST PUSH1 0x0 DUP3 DUP3 SHL SWAP1 POP SWAP3 SWAP2 POP POP JUMP JUMPDEST PUSH1 0x0 PUSH1 0x8 DUP4 MUL PUSH3 0x2D6 PUSH32 0xFFFFFFFFFFFFFFFFFFFFFFFFFFFFFFFFFFFFFFFFFFFFFFFFFFFFFFFFFFFFFFFF DUP3 PUSH3 0x297 JUMP JUMPDEST PUSH3 0x2E2 DUP7 DUP4 PUSH3 0x297 JUMP JUMPDEST SWAP6 POP DUP1 NOT DUP5 AND SWAP4 POP DUP1 DUP7 AND DUP5 OR SWAP3 POP POP POP SWAP4 SWAP3 POP POP POP JUMP JUMPDEST PUSH1 0x0 DUP2 SWAP1 POP SWAP2 SWAP1 POP JUMP JUMPDEST PUSH1 0x0 DUP2 SWAP1 POP SWAP2 SWAP1 POP JUMP JUMPDEST PUSH1 0x0 PUSH3 0x32F PUSH3 0x329 PUSH3 0x323 DUP5 PUSH3 0x2FA JUMP JUMPDEST PUSH3 0x304 JUMP JUMPDEST PUSH3 0x2FA JUMP JUMPDEST SWAP1 POP SWAP2 SWAP1 POP JUMP JUMPDEST PUSH1 0x0 DUP2 SWAP1 POP SWAP2 SWAP1 POP JUMP JUMPDEST PUSH3 0x34B DUP4 PUSH3 0x30E JUMP JUMPDEST PUSH3 0x363 PUSH3 0x35A DUP3 PUSH3 0x336 JUMP JUMPDEST DUP5 DUP5 SLOAD PUSH3 0x2A4 JUMP JUMPDEST DUP3 SSTORE POP POP POP POP JUMP JUMPDEST PUSH1 0x0 SWAP1 JUMP JUMPDEST PUSH3 0x37A PUSH3 0x36B JUMP JUMPDEST PUSH3 0x387 DUP2 DUP5 DUP5 PUSH3 0x340 JUMP JUMPDEST POP POP POP JUMP JUMPDEST JUMPDEST DUP2 DUP2 LT ISZERO PUSH3 0x3AF JUMPI PUSH3 0x3A3 PUSH1 0x0 DUP3 PUSH3 0x370 JUMP JUMPDEST PUSH1 0x1 DUP2 ADD SWAP1 POP PUSH3 0x38D JUMP JUMPDEST POP POP JUMP JUMPDEST PUSH1 0x1F DUP3 GT ISZERO PUSH3 0x3FE JUMPI PUSH3 0x3C8 DUP2 PUSH3 0x272 JUMP JUMPDEST PUSH3 0x3D3 DUP5 PUSH3 0x287 JUMP JUMPDEST DUP2 ADD PUSH1 0x20 DUP6 LT ISZERO PUSH3 0x3E3 JUMPI DUP2 SWAP1 POP JUMPDEST PUSH3 0x3FB PUSH3 0x3F2 DUP6 PUSH3 0x287 JUMP JUMPDEST DUP4 ADD DUP3 PUSH3 0x38C JUMP JUMPDEST POP POP JUMPDEST POP POP POP JUMP JUMPDEST PUSH1 0x0 DUP3 DUP3 SHR SWAP1 POP SWAP3 SWAP2 POP POP JUMP JUMPDEST PUSH1 0x0 PUSH3 0x423 PUSH1 0x0 NOT DUP5 PUSH1 0x8 MUL PUSH3 0x403 JUMP JUMPDEST NOT DUP1 DUP4 AND SWAP2 POP POP SWAP3 SWAP2 POP POP JUMP JUMPDEST PUSH1 0x0 PUSH3 0x43E DUP4 DUP4 PUSH3 0x410 JUMP JUMPDEST SWAP2 POP DUP3 PUSH1 0x2 MUL DUP3 OR SWAP1 POP SWAP3 SWAP2 POP POP JUMP JUMPDEST PUSH3 0x459 DUP3 PUSH3 0x1D4 JUMP JUMPDEST PUSH8 0xFFFFFFFFFFFFFFFF DUP2 GT ISZERO PUSH3 0x475 JUMPI PUSH3 0x474 PUSH3 0x1DF JUMP JUMPDEST JUMPDEST PUSH3 0x481 DUP3 SLOAD PUSH3 0x23D JUMP JUMPDEST PUSH3 0x48E DUP3 DUP3 DUP6 PUSH3 0x3B3 JUMP JUMPDEST PUSH1 0x0 PUSH1 0x20 SWAP1 POP PUSH1 0x1F DUP4 GT PUSH1 0x1 DUP2 EQ PUSH3 0x4C6 JUMPI PUSH1 0x0 DUP5 ISZERO PUSH3 0x4B1 JUMPI DUP3 DUP8 ADD MLOAD SWAP1 POP JUMPDEST PUSH3 0x4BD DUP6 DUP3 PUSH3 0x430 JUMP JUMPDEST DUP7 SSTORE POP PUSH3 0x52D JUMP JUMPDEST PUSH1 0x1F NOT DUP5 AND PUSH3 0x4D6 DUP7 PUSH3 0x272 JUMP JUMPDEST PUSH1 0x0 JUMPDEST DUP3 DUP2 LT ISZERO PUSH3 0x500 JUMPI DUP5 DUP10 ADD MLOAD DUP3 SSTORE PUSH1 0x1 DUP3 ADD SWAP2 POP PUSH1 0x20 DUP6 ADD SWAP5 POP PUSH1 0x20 DUP2 ADD SWAP1 POP PUSH3 0x4D9 JUMP JUMPDEST DUP7 DUP4 LT ISZERO PUSH3 0x520 JUMPI DUP5 DUP10 ADD MLOAD PUSH3 0x51C PUSH1 0x1F DUP10 AND DUP3 PUSH3 0x410 JUMP JUMPDEST DUP4 SSTORE POP JUMPDEST PUSH1 0x1 PUSH1 0x2 DUP9 MUL ADD DUP9 SSTORE POP POP POP JUMPDEST POP POP POP POP POP POP JUMP JUMPDEST PUSH3 0x540 DUP2 PUSH3 0x165 JUMP JUMPDEST DUP3 MSTORE POP POP JUMP JUMPDEST PUSH1 0x0 PUSH1 0x20 DUP3 ADD SWAP1 POP PUSH3 0x55D PUSH1 0x0 DUP4 ADD DUP5 PUSH3 0x535 JUMP JUMPDEST SWAP3 SWAP2 POP POP JUMP JUMPDEST PUSH32 0x4E487B7100000000000000000000000000000000000000000000000000000000 PUSH1 0x0 MSTORE PUSH1 0x11 PUSH1 0x4 MSTORE PUSH1 0x24 PUSH1 0x0 REVERT JUMPDEST PUSH1 0x0 PUSH3 0x59F DUP3 PUSH3 0x2FA JUMP JUMPDEST SWAP2 POP PUSH32 0xFFFFFFFFFFFFFFFFFFFFFFFFFFFFFFFFFFFFFFFFFFFFFFFFFFFFFFFFFFFFFFFF DUP3 SUB PUSH3 0x5D4 JUMPI PUSH3 0x5D3 PUSH3 0x563 JUMP JUMPDEST JUMPDEST PUSH1 0x1 DUP3 ADD SWAP1 POP SWAP2 SWAP1 POP JUMP JUMPDEST PUSH2 0x315 DUP1 PUSH3 0x5EF PUSH1 0x0 CODECOPY PUSH1 0x0 RETURN INVALID PUSH1 0x80 PUSH1 0x40 MSTORE CALLVALUE DUP1 ISZERO PUSH2 0x10 JUMPI PUSH1 0x0 DUP1 REVERT JUMPDEST POP PUSH1 0x4 CALLDATASIZE LT PUSH2 0x36 JUMPI PUSH1 0x0 CALLDATALOAD PUSH1 0xE0 SHR DUP1 PUSH4 0x65372147 EQ PUSH2 0x3B JUMPI DUP1 PUSH4 0xD39FA233 EQ PUSH2 0x59 JUMPI JUMPDEST PUSH1 0x0 DUP1 REVERT JUMPDEST PUSH2 0x43 PUSH2 0x89 JUMP JUMPDEST PUSH1 0x40 MLOAD PUSH2 0x50 SWAP2 SWAP1 PUSH2 0x1CB JUMP JUMPDEST PUSH1 0x40 MLOAD DUP1 SWAP2 SUB SWAP1 RETURN JUMPDEST PUSH2 0x73 PUSH1 0x4 DUP1 CALLDATASIZE SUB DUP2 ADD SWAP1 PUSH2 0x6E SWAP2 SWAP1 PUSH2 0x228 JUMP JUMPDEST PUSH2 0x117 JUMP JUMPDEST PUSH1 0x40 MLOAD PUSH2 0x80 SWAP2 SWAP1 PUSH2 0x264 JUMP JUMPDEST PUSH1 0x40 MLOAD DUP1 SWAP2 SUB SWAP1 RETURN JUMPDEST PUSH1 0x1 DUP1 SLOAD PUSH2 0x96 SWAP1 PUSH2 0x2AE JUMP JUMPDEST DUP1 PUSH1 0x1F ADD PUSH1 0x20 DUP1 SWAP2 DIV MUL PUSH1 0x20 ADD PUSH1 0x40 MLOAD SWAP1 DUP2 ADD PUSH1 0x40 MSTORE DUP1 SWAP3 SWAP2 SWAP1 DUP2 DUP2 MSTORE PUSH1 0x20 ADD DUP3 DUP1 SLOAD PUSH2 0xC2 SWAP1 PUSH2 0x2AE JUMP JUMPDEST DUP1 ISZERO PUSH2 0x10F JUMPI DUP1 PUSH1 0x1F LT PUSH2 0xE4 JUMPI PUSH2 0x100 DUP1 DUP4 SLOAD DIV MUL DUP4 MSTORE SWAP2 PUSH1 0x20 ADD SWAP2 PUSH2 0x10F JUMP JUMPDEST DUP3 ADD SWAP2 SWAP1 PUSH1 0x0 MSTORE PUSH1 0x20 PUSH1 0x0 KECCAK256 SWAP1 JUMPDEST DUP2 SLOAD DUP2 MSTORE SWAP1 PUSH1 0x1 ADD SWAP1 PUSH1 0x20 ADD DUP1 DUP4 GT PUSH2 0xF2 JUMPI DUP3 SWAP1 SUB PUSH1 0x1F AND DUP3 ADD SWAP2 JUMPDEST POP POP POP POP POP DUP2 JUMP JUMPDEST PUSH1 0x0 DUP2 DUP2 SLOAD DUP2 LT PUSH2 0x127 JUMPI PUSH1 0x0 DUP1 REVERT JUMPDEST SWAP1 PUSH1 0x0 MSTORE PUSH1 0x20 PUSH1 0x0 KECCAK256 ADD PUSH1 0x0 SWAP2 POP SWAP1 POP SLOAD DUP2 JUMP JUMPDEST PUSH1 0x0 DUP2 MLOAD SWAP1 POP SWAP2 SWAP1 POP JUMP JUMPDEST PUSH1 0x0 DUP3 DUP3 MSTORE PUSH1 0x20 DUP3 ADD SWAP1 POP SWAP3 SWAP2 POP POP JUMP JUMPDEST PUSH1 0x0 JUMPDEST DUP4 DUP2 LT ISZERO PUSH2 0x175 JUMPI DUP1 DUP3 ADD MLOAD DUP2 DUP5 ADD MSTORE PUSH1 0x20 DUP2 ADD SWAP1 POP PUSH2 0x15A JUMP JUMPDEST PUSH1 0x0 DUP5 DUP5 ADD MSTORE POP POP POP POP JUMP JUMPDEST PUSH1 0x0 PUSH1 0x1F NOT PUSH1 0x1F DUP4 ADD AND SWAP1 POP SWAP2 SWAP1 POP JUMP JUMPDEST PUSH1 0x0 PUSH2 0x19D DUP3 PUSH2 0x13B JUMP JUMPDEST PUSH2 0x1A7 DUP2 DUP6 PUSH2 0x146 JUMP JUMPDEST SWAP4 POP PUSH2 0x1B7 DUP2 DUP6 PUSH1 0x20 DUP7 ADD PUSH2 0x157 JUMP JUMPDEST PUSH2 0x1C0 DUP2 PUSH2 0x181 JUMP JUMPDEST DUP5 ADD SWAP2 POP POP SWAP3 SWAP2 POP POP JUMP JUMPDEST PUSH1 0x0 PUSH1 0x20 DUP3 ADD SWAP1 POP DUP2 DUP2 SUB PUSH1 0x0 DUP4 ADD MSTORE PUSH2 0x1E5 DUP2 DUP5 PUSH2 0x192 JUMP JUMPDEST SWAP1 POP SWAP3 SWAP2 POP POP JUMP JUMPDEST PUSH1 0x0 DUP1 REVERT JUMPDEST PUSH1 0x0 DUP2 SWAP1 POP SWAP2 SWAP1 POP JUMP JUMPDEST PUSH2 0x205 DUP2 PUSH2 0x1F2 JUMP JUMPDEST DUP2 EQ PUSH2 0x210 JUMPI PUSH1 0x0 DUP1 REVERT JUMPDEST POP JUMP JUMPDEST PUSH1 0x0 DUP2 CALLDATALOAD SWAP1 POP PUSH2 0x222 DUP2 PUSH2 0x1FC JUMP JUMPDEST SWAP3 SWAP2 POP POP JUMP JUMPDEST PUSH1 0x0 PUSH1 0x20 DUP3 DUP5 SUB SLT ISZERO PUSH2 0x23E JUMPI PUSH2 0x23D PUSH2 0x1ED JUMP JUMPDEST JUMPDEST PUSH1 0x0 PUSH2 0x24C DUP5 DUP3 DUP6 ADD PUSH2 0x213 JUMP JUMPDEST SWAP2 POP POP SWAP3 SWAP2 POP POP JUMP JUMPDEST PUSH2 0x25E DUP2 PUSH2 0x1F2 JUMP JUMPDEST DUP3 MSTORE POP POP JUMP JUMPDEST PUSH1 0x0 PUSH1 0x20 DUP3 ADD SWAP1 POP PUSH2 0x279 PUSH1 0x0 DUP4 ADD DUP5 PUSH2 0x255 JUMP JUMPDEST SWAP3 SWAP2 POP POP JUMP JUMPDEST PUSH32 0x4E487B7100000000000000000000000000000000000000000000000000000000 PUSH1 0x0 MSTORE PUSH1 0x22 PUSH1 0x4 MSTORE PUSH1 0x24 PUSH1 0x0 REVERT JUMPDEST PUSH1 0x0 PUSH1 0x2 DUP3 DIV SWAP1 POP PUSH1 0x1 DUP3 AND DUP1 PUSH2 0x2C6 JUMPI PUSH1 0x7F DUP3 AND SWAP2 POP JUMPDEST PUSH1 0x20 DUP3 LT DUP2 SUB PUSH2 0x2D9 JUMPI PUSH2 0x2D8 PUSH2 0x27F JUMP JUMPDEST JUMPDEST POP SWAP2 SWAP1 POP JUMP INVALID LOG2 PUSH5 0x6970667358 0x22 SLT KECCAK256 GT JUMPDEST SWAP6 0xDE 0xEB 0xB9 RETURNDATACOPY DUP13 0xBF SWAP7 PUSH21 0xC3B2D4409E9D6580A291ED4F03FA2496AF1115D65A PUSH5 0x736F6C6343 STOP ADDMOD SLT STOP CALLER "
				},
				"gasEstimates": {
					"creation": {
						"codeDepositCost": "157800",
						"executionCost": "infinite",
						"totalCost": "infinite"
					},
					"external": {
						"numbers(uint256)": "infinite",
						"result()": "infinite"
					}
				},
				"methodIdentifiers": {
					"numbers(uint256)": "d39fa233",
					"result()": "65372147"
				}
			},
			"storageLayout": {
				"storage": [
					{
						"astId": 4,
						"contract": "Platzi Solidity Intro/Events.sol:Envents",
						"label": "numbers",
						"offset": 0,
						"slot": "0",
						"type": "t_array(t_uint256)dyn_storage"
					},
					{
						"astId": 6,
						"contract": "Platzi Solidity Intro/Events.sol:Envents",
						"label": "result",
						"offset": 0,
						"slot": "1",
						"type": "t_string_storage"
					}
				],
				"types": {
					"t_array(t_uint256)dyn_storage": {
						"base": "t_uint256",
						"encoding": "dynamic_array",
						"label": "uint256[]",
						"numberOfBytes": "32"
					},
					"t_string_storage": {
						"encoding": "bytes",
						"label": "string",
						"numberOfBytes": "32"
					},
					"t_uint256": {
						"encoding": "inplace",
						"label": "uint256",
						"numberOfBytes": "32"
					}
				}
			},
			"userdoc": {
				"kind": "user",
				"methods": {},
				"version": 1
			}
		}
	}
}